{
  "contractName": "CTFRegistry",
  "abi": [
    {
      "constant": true,
      "inputs": [],
      "name": "len",
      "outputs": [
        {
          "name": "",
          "type": "uint256"
        }
      ],
      "payable": false,
      "stateMutability": "view",
      "type": "function"
    },
    {
      "constant": true,
      "inputs": [],
      "name": "_code",
      "outputs": [
        {
          "name": "",
          "type": "bytes"
        }
      ],
      "payable": false,
      "stateMutability": "view",
      "type": "function"
    },
    {
      "anonymous": false,
      "inputs": [
        {
          "indexed": false,
          "name": "deployedAddress",
          "type": "address"
        }
      ],
      "name": "ContractDeployed",
      "type": "event"
    },
    {
      "constant": true,
      "inputs": [
        {
          "name": "_CTFaddress",
          "type": "bytes32"
        }
      ],
      "name": "resolveAddress",
      "outputs": [
        {
          "name": "",
          "type": "address"
        }
      ],
      "payable": false,
      "stateMutability": "view",
      "type": "function"
    },
    {
      "constant": false,
      "inputs": [
        {
          "name": "_state",
          "type": "bytes"
        },
        {
          "name": "_v",
          "type": "uint8[2]"
        },
        {
          "name": "_r",
          "type": "bytes32[2]"
        },
        {
          "name": "_s",
          "type": "bytes32[2]"
        }
      ],
      "name": "deployCTF",
      "outputs": [],
      "payable": false,
      "stateMutability": "nonpayable",
      "type": "function"
    }
  ],
  "bytecode": "0x608060405234801561001057600080fd5b50610702806100206000396000f3006080604052600436106100615763ffffffff7c010000000000000000000000000000000000000000000000000000000060003504166356d88e2781146100665780636a14920a1461008d5780638d1841e3146100ce578063993fc5b514610158575b600080fd5b34801561007257600080fd5b5061007b61021c565b60408051918252519081900360200190f35b34801561009957600080fd5b506100a5600435610222565b6040805173ffffffffffffffffffffffffffffffffffffffff9092168252519081900360200190f35b3480156100da57600080fd5b506100e361024a565b6040805160208082528351818301528351919283929083019185019080838360005b8381101561011d578181015183820152602001610105565b50505050905090810190601f16801561014a5780820380516001836020036101000a031916815260200191505b509250505060405180910390f35b34801561016457600080fd5b506040805160206004803580820135601f810184900484028501840190955284845261021a943694929360249392840191908190840183828082843750506040805180820182529598979681810196955093506002925084915083908082843750506040805180820182529497969581810195945092506002915083908390808284375050604080518082018252949796958181019594509250600291508390839080828437509396506102d795505050505050565b005b60025481565b60009081526020819052604090205473ffffffffffffffffffffffffffffffffffffffff1690565b60018054604080516020600284861615610100026000190190941693909304601f810184900484028201840190925281815292918301828280156102cf5780601f106102a4576101008083540402835291602001916102cf565b820191906000526020600020905b8154815290600101906020018083116102b257829003601f168201915b505050505081565b6000806000606060008060008a6040518082805190602001908083835b602083106103135780518252601f1990920191602091820191016102f4565b6001836020036101000a0380198251168184511680821785525050505050509050019150506040518091039020965061034b8b6104cb565b90965094506103598b6104da565b93508351602085016000f09250600091505b6002821015610447576103b0878b846002811061038457fe5b60200201518b856002811061039557fe5b60200201518b86600281106103a657fe5b60200201516105d5565b905073ffffffffffffffffffffffffffffffffffffffff808216908716146103f75773ffffffffffffffffffffffffffffffffffffffff818116908616146103f757600080fd5b73ffffffffffffffffffffffffffffffffffffffff8181169086161461043c5773ffffffffffffffffffffffffffffffffffffffff8181169087161461043c57600080fd5b60019091019061036b565b60008781526020818152604091829020805473ffffffffffffffffffffffffffffffffffffffff191673ffffffffffffffffffffffffffffffffffffffff8716908117909155825190815291517f8ffcdc15a283d706d38281f500270d8b5a656918f555de0913d7455e3e6bc1bf9281900390910190a15050505050505050505050565b60208101516040909101519091565b805160408051605f198301808252601f1960401985011682016020019092526060929190839060009083801561051a578160200160208202803883390190505b509150606090505b838110156105cc57858181518110151561053857fe5b9060200101517f010000000000000000000000000000000000000000000000000000000000000090047f010000000000000000000000000000000000000000000000000000000000000002826060830381518110151561059457fe5b9060200101907effffffffffffffffffffffffffffffffffffffffffffffffffffffffffffff1916908160001a905350600101610522565b50949350505050565b604080518082018252601c8082527f19457468657265756d205369676e6564204d6573736167653a0a3332000000006020830190815292516000938492839285928b928291908083835b6020831061063e5780518252601f19909201916020918201910161061f565b51815160209384036101000a6000190180199092169116179052920193845250604080519384900382018420600080865285840180845282905260ff8e1686840152606086018d9052608086018c905291519097506001955060a080860195939450601f198201938290030191865af11580156106bf573d6000803e3d6000fd5b5050604051601f19015199985050505050505050505600a165627a7a723058208219087356c77428c07eb7fbc73a7d5b16b0356fefc4eb5df153db656bc5b5040029",
  "source": "pragma solidity ^0.4.23;\n\ncontract CTFRegistry {\n    mapping(bytes32 => address) registry;\n    bytes public _code;\n    uint public len;\n\n    event ContractDeployed(address deployedAddress);\n\n    function resolveAddress(bytes32 _CTFaddress) public view returns(address) {\n        return registry[_CTFaddress];\n    }\n\n    // fix: remove _CTFBytes and pull the bytes from the state\n    function deployCTF(bytes _state, uint8[2] _v, bytes32[2] _r, bytes32[2] _s) public {\n        bytes32 _CTFaddress = keccak256(_state);\n        //bytes32 _CTFaddress = keccak256(_sigs);\n        //bytes32 _CTFaddress = keccak256(_r[0], _s[0], _v[0], _r[1], _s[1], _v[1]);\n\n        address a;\n        address b;\n        bytes memory c;\n        \n        (a, b) = _decodeAddresses(_state);\n        (c) = _decodeContractCode(_state);\n\n        address deployedAddress;\n        assembly {\n            deployedAddress := create(0, add(c, 0x20), mload(c))\n            // invalidJumLabel no longer compiles in solc v0.4.12 and higher\n            //jumpi(invalidJumpLabel, iszero(extcodesize(deployedAddress)))\n        }\n\n        for(uint i=0; i<2; i++) {\n            address _signer = _getSig(_CTFaddress, _v[i], _r[i], _s[i]);\n            if (_signer != a) require(_signer == b);\n            if (_signer != b) require(_signer == a);\n        }\n\n        // or\n        //address _partyA = _getSig(_state, _v[0], _r[0], _s[0]);\n        //address _partyB = _getSig(_state, _v[1], _r[1], _s[1]);\n        //require(a == partyA && b == partyB);\n        \n        registry[_CTFaddress] = deployedAddress;\n        emit ContractDeployed(deployedAddress);\n    }\n\n    function _decodeAddresses(bytes _state) internal pure returns(address A, address B){\n        // State\n        // [32] address A\n        // [64] address B\n        // [96] Contract Length\n        // [] Contract Codes\n\n        assembly {\n            A := mload(add(_state, 32))\n            B := mload(add(_state, 64))\n        }\n    }\n\n    function _decodeContractCode(bytes _state) internal pure returns(bytes){\n        uint _length = _state.length;\n        uint _newlength = _length - 96;\n        bytes memory output = new bytes(_newlength);\n        for (uint i = 96; i<_length; i++) {\n          output[i-96] = _state[i];\n        }\n        return output;\n    }\n\n    function _getSig(bytes32 _h, uint8 _v, bytes32 _r, bytes32 _s) internal pure returns(address) {\n        bytes memory prefix = \"\\x19Ethereum Signed Message:\\n32\";\n\n        bytes32 prefixedHash = keccak256(prefix, _h);\n\n        address a = ecrecover(prefixedHash, _v, _r, _s);\n\n        //address a = ECRecovery.recover(prefixedHash, _s);\n\n        return(a);\n    }\n}",
  "sourcePath": "/home/newton/github/finalitylabs/layer2lib/js-layer2lib/contracts/repo/contracts/CTFRegistry.sol",
  "compiler": {
    "name": "solc",
    "version": "0.4.23+commit.124ca40d.Emscripten.clang"
  },
  "schemaVersion": "2.0.0",
  "updatedAt": "2018-06-25T21:32:32.533Z"
}