{
  "contractName": "ECTools",
  "abi": [
    {
      "constant": true,
      "inputs": [
        {
          "name": "_hashedMsg",
          "type": "bytes32"
        },
        {
          "name": "_sig",
          "type": "string"
        }
      ],
      "name": "recoverSigner",
      "outputs": [
        {
          "name": "",
          "type": "address"
        }
      ],
      "payable": false,
      "stateMutability": "pure",
      "type": "function"
    },
    {
      "constant": true,
      "inputs": [
        {
          "name": "_hashedMsg",
          "type": "bytes32"
        },
        {
          "name": "_sig",
          "type": "string"
        },
        {
          "name": "_addr",
          "type": "address"
        }
      ],
      "name": "isSignedBy",
      "outputs": [
        {
          "name": "",
          "type": "bool"
        }
      ],
      "payable": false,
      "stateMutability": "pure",
      "type": "function"
    },
    {
      "constant": true,
      "inputs": [
        {
          "name": "_hexstr",
          "type": "string"
        }
      ],
      "name": "hexstrToBytes",
      "outputs": [
        {
          "name": "",
          "type": "bytes"
        }
      ],
      "payable": false,
      "stateMutability": "pure",
      "type": "function"
    },
    {
      "constant": true,
      "inputs": [
        {
          "name": "_char",
          "type": "string"
        }
      ],
      "name": "parseInt16Char",
      "outputs": [
        {
          "name": "",
          "type": "uint256"
        }
      ],
      "payable": false,
      "stateMutability": "pure",
      "type": "function"
    },
    {
      "constant": true,
      "inputs": [
        {
          "name": "_uint",
          "type": "uint256"
        }
      ],
      "name": "uintToBytes32",
      "outputs": [
        {
          "name": "b",
          "type": "bytes"
        }
      ],
      "payable": false,
      "stateMutability": "pure",
      "type": "function"
    },
    {
      "constant": true,
      "inputs": [
        {
          "name": "_msg",
          "type": "string"
        }
      ],
      "name": "toEthereumSignedMessage",
      "outputs": [
        {
          "name": "",
          "type": "bytes32"
        }
      ],
      "payable": false,
      "stateMutability": "pure",
      "type": "function"
    },
    {
      "constant": true,
      "inputs": [
        {
          "name": "_uint",
          "type": "uint256"
        }
      ],
      "name": "uintToString",
      "outputs": [
        {
          "name": "str",
          "type": "string"
        }
      ],
      "payable": false,
      "stateMutability": "pure",
      "type": "function"
    },
    {
      "constant": true,
      "inputs": [
        {
          "name": "_str",
          "type": "string"
        },
        {
          "name": "_startIndex",
          "type": "uint256"
        },
        {
          "name": "_endIndex",
          "type": "uint256"
        }
      ],
      "name": "substring",
      "outputs": [
        {
          "name": "",
          "type": "string"
        }
      ],
      "payable": false,
      "stateMutability": "pure",
      "type": "function"
    }
  ],
  "bytecode": "0x610d16610030600b82828239805160001a6073146000811461002057610022565bfe5b5030600052607381538281f30073000000000000000000000000000000000000000030146080604052600436106100a45763ffffffff7c01000000000000000000000000000000000000000000000000000000006000350416631052506f81146100a95780631445f713146101265780631dcd9b55146101e757806338b025b21461023c578063886d3db91461029a578063dae21454146102a5578063dca95419146102f1578063e93956791461036b575b600080fd5b60408051602060046024803582810135601f81018590048502860185019096528585526101129583359536956044949193909101919081908401838280828437509497505050923573ffffffffffffffffffffffffffffffffffffffff16935061037692505050565b604080519115158252519081900360200190f35b6040805160206004803580820135601f81018490048402850184019095528484526101729436949293602493928401919081908401838280828437509497506103db9650505050505050565b6040805160208082528351818301528351919283929083019185019080838360005b838110156101ac578181015183820152602001610194565b50505050905090810190601f1680156101d95780820380516001836020036101000a031916815260200191505b509250505060405180910390f35b6040805160206004803580820135601f81018490048402850184019095528484526101729436949293602493928401919081908401838280828437509497505084359550505060209092013591506104e99050565b6040805160206004803580820135601f81018490048402850184019095528484526102889436949293602493928401919081908401838280828437509497506105b99650505050505050565b60408051918252519081900360200190f35b610172600435610840565b6040805160206004803580820135601f810184900484028501840190955284845261028894369492936024939284019190819084018382808284375094975061086b9650505050505050565b60408051602060046024803582810135601f8101859004850286018501909652858552610342958335953695604494919390910191908190840183828082843750949750610a199650505050505050565b6040805173ffffffffffffffffffffffffffffffffffffffff9092168252519081900360200190f35b610172600435610c15565b600073ffffffffffffffffffffffffffffffffffffffff8216151561039a57600080fd5b6103a48484610a19565b73ffffffffffffffffffffffffffffffffffffffff168273ffffffffffffffffffffffffffffffffffffffff161490509392505050565b80516060908160008180828060028706156103f557600080fd5b600287046040519080825280601f01601f191660200182016040528015610426578160200160208202803883390190505b50955060009450600091505b868210156104dc576104488983846001016104e9565b935061045b8983600101846002016104e9565b9250610466836105b9565b61046f856105b9565b60100201905061047e81610840565b8051601f90811061048b57fe5b90602001015160f860020a900460f860020a0286868060010197508151811015156104b257fe5b906020010190600080516020610ccb8339815191521916908160001a905350600282019150610432565b5093979650505050505050565b606083816000848611156104fc57600080fd5b600086101561050a57600080fd5b825185111561051857600080fd5b8585036040519080825280601f01601f191660200182016040528015610548578160200160208202803883390190505b5091508590505b848110156105af57828181518110151561056557fe5b90602001015160f860020a900460f860020a028287830381518110151561058857fe5b906020010190600080516020610ccb8339815191521916908160001a90535060010161054f565b5095945050505050565b805160009082907f3000000000000000000000000000000000000000000000000000000000000000908290849081106105ee57fe5b90602001015160f860020a900460f860020a02600080516020610ccb833981519152191610158015610673575080517f3900000000000000000000000000000000000000000000000000000000000000908290600090811061064c57fe5b90602001015160f860020a900460f860020a02600080516020610ccb833981519152191611155b156106a257603081600081518110151561068957fe5b016020015160f860020a9081900481020403915061083a565b80517f410000000000000000000000000000000000000000000000000000000000000090829060009081106106d357fe5b90602001015160f860020a900460f860020a02600080516020610ccb833981519152191610158015610758575080517f4600000000000000000000000000000000000000000000000000000000000000908290600090811061073157fe5b90602001015160f860020a900460f860020a02600080516020610ccb833981519152191611155b1561076e57603781600081518110151561068957fe5b80517f6100000000000000000000000000000000000000000000000000000000000000908290600090811061079f57fe5b90602001015160f860020a900460f860020a02600080516020610ccb833981519152191610158015610824575080517f660000000000000000000000000000000000000000000000000000000000000090829060009081106107fd57fe5b90602001015160f860020a900460f860020a02600080516020610ccb833981519152191611155b156100a457605781600081518110151561068957fe5b50919050565b6040805160208082528183019092526060918082016104008038833950505060208101929092525090565b8051600090606082821161087e57600080fd5b5060408051808201909152601a81527f19457468657265756d205369676e6564204d6573736167653a0a0000000000006020820152806108bd83610c15565b856040516020018084805190602001908083835b602083106108f05780518252601f1990920191602091820191016108d1565b51815160209384036101000a600019018019909216911617905286519190930192860191508083835b602083106109385780518252601f199092019160209182019101610919565b51815160209384036101000a600019018019909216911617905285519190930192850191508083835b602083106109805780518252601f199092019160209182019101610961565b6001836020036101000a03801982511681845116808217855250505050505090500193505050506040516020818303038152906040526040518082805190602001908083835b602083106109e55780518252601f1990920191602091820191016109c6565b5181516020939093036101000a60001901801990911692169190911790526040519201829003909120979650505050505050565b600060608180808084881515610a2e57600080fd5b6040805190810160405280601c81526020017f19457468657265756d205369676e6564204d6573736167653a0a333200000000815250955085896040516020018083805190602001908083835b60208310610a9a5780518252601f199092019160209182019101610a7b565b51815160209384036101000a600019018019909216911617905292019384525060408051808503815293820190819052835193945092839250908401908083835b60208310610afa5780518252601f199092019160209182019101610adb565b6001836020036101000a0380198251168184511680821785525050505050509050019150506040518091039020945087516084141515610b3d5760009650610c09565b610b52610b4d89600260846104e9565b6103db565b90506020810151935060408101519250606081015160001a9150601b8260ff161015610b7f57601b820191505b601b8260ff161080610b945750601c8260ff16115b15610ba25760009650610c09565b604080516000808252602080830180855289905260ff8616838501526060830188905260808301879052925160019360a0808501949193601f19840193928390039091019190865af1158015610bfc573d6000803e3d6000fd5b5050506020604051035196505b50505050505092915050565b60606000828282805b8315610c3557600190940193600a84049350610c1e565b846040519080825280601f01601f191660200182016040528015610c63578160200160208202803883390190505b5092506001850391505b8615610cbf57508151600a808804976000198401939190069160f860020a60308401029185918110610c9b57fe5b906020010190600080516020610ccb8339815191521916908160001a905350610c6d565b509095945050505050560000ffffffffffffffffffffffffffffffffffffffffffffffffffffffffffffffa165627a7a72305820ac2a24539b165ed91954cbfb771a427792606bc75ab08033070c0687b9b79a6f0029",
  "source": "pragma solidity ^0.4.23;\n\nlibrary ECTools {\n\n    // @dev Recovers the address which has signed a message\n    // @thanks https://gist.github.com/axic/5b33912c6f61ae6fd96d6c4a47afde6d\n    function recoverSigner(bytes32 _hashedMsg, string _sig) public pure returns (address) {\n        require(_hashedMsg != 0x00);\n\n        // need this for test RPC\n        bytes memory prefix = \"\\x19Ethereum Signed Message:\\n32\";\n        bytes32 prefixedHash = keccak256(abi.encodePacked(prefix, _hashedMsg));\n\n        if (bytes(_sig).length != 132) {\n            return 0x0;\n        }\n        bytes32 r;\n        bytes32 s;\n        uint8 v;\n        bytes memory sig = hexstrToBytes(substring(_sig, 2, 132));\n        assembly {\n            r := mload(add(sig, 32))\n            s := mload(add(sig, 64))\n            v := byte(0, mload(add(sig, 96)))\n        }\n        if (v < 27) {\n            v += 27;\n        }\n        if (v < 27 || v > 28) {\n            return 0x0;\n        }\n        return ecrecover(prefixedHash, v, r, s);\n    }\n\n    // @dev Verifies if the message is signed by an address\n    function isSignedBy(bytes32 _hashedMsg, string _sig, address _addr) public pure returns (bool) {\n        require(_addr != 0x0);\n\n        return _addr == recoverSigner(_hashedMsg, _sig);\n    }\n\n    // @dev Converts an hexstring to bytes\n    function hexstrToBytes(string _hexstr) public pure returns (bytes) {\n        uint len = bytes(_hexstr).length;\n        require(len % 2 == 0);\n\n        bytes memory bstr = bytes(new string(len / 2));\n        uint k = 0;\n        string memory s;\n        string memory r;\n        for (uint i = 0; i < len; i += 2) {\n            s = substring(_hexstr, i, i + 1);\n            r = substring(_hexstr, i + 1, i + 2);\n            uint p = parseInt16Char(s) * 16 + parseInt16Char(r);\n            bstr[k++] = uintToBytes32(p)[31];\n        }\n        return bstr;\n    }\n\n    // @dev Parses a hexchar, like 'a', and returns its hex value, in this case 10\n    function parseInt16Char(string _char) public pure returns (uint) {\n        bytes memory bresult = bytes(_char);\n        // bool decimals = false;\n        if ((bresult[0] >= 48) && (bresult[0] <= 57)) {\n            return uint(bresult[0]) - 48;\n        } else if ((bresult[0] >= 65) && (bresult[0] <= 70)) {\n            return uint(bresult[0]) - 55;\n        } else if ((bresult[0] >= 97) && (bresult[0] <= 102)) {\n            return uint(bresult[0]) - 87;\n        } else {\n            revert();\n        }\n    }\n\n    // @dev Converts a uint to a bytes32\n    // @thanks https://ethereum.stackexchange.com/questions/4170/how-to-convert-a-uint-to-bytes-in-solidity\n    function uintToBytes32(uint _uint) public pure returns (bytes b) {\n        b = new bytes(32);\n        assembly {mstore(add(b, 32), _uint)}\n    }\n\n    // @dev Hashes the signed message\n    // @ref https://github.com/ethereum/go-ethereum/issues/3731#issuecomment-293866868\n    function toEthereumSignedMessage(string _msg) public pure returns (bytes32) {\n        uint len = bytes(_msg).length;\n        require(len > 0);\n        bytes memory prefix = \"\\x19Ethereum Signed Message:\\n\";\n        return keccak256(abi.encodePacked(prefix, uintToString(len), _msg));\n    }\n\n    // @dev Converts a uint in a string\n    function uintToString(uint _uint) public pure returns (string str) {\n        uint len = 0;\n        uint m = _uint + 0;\n        while (m != 0) {\n            len++;\n            m /= 10;\n        }\n        bytes memory b = new bytes(len);\n        uint i = len - 1;\n        while (_uint != 0) {\n            uint remainder = _uint % 10;\n            _uint = _uint / 10;\n            b[i--] = byte(48 + remainder);\n        }\n        str = string(b);\n    }\n\n\n    // @dev extract a substring\n    // @thanks https://ethereum.stackexchange.com/questions/31457/substring-in-solidity\n    function substring(string _str, uint _startIndex, uint _endIndex) public pure returns (string) {\n        bytes memory strBytes = bytes(_str);\n        require(_startIndex <= _endIndex);\n        require(_startIndex >= 0);\n        require(_endIndex <= strBytes.length);\n\n        bytes memory result = new bytes(_endIndex - _startIndex);\n        for (uint i = _startIndex; i < _endIndex; i++) {\n            result[i - _startIndex] = strBytes[i];\n        }\n        return string(result);\n    }\n}",
  "sourcePath": "/home/newton/github/finalitylabs/layer2lib/js-layer2lib/contracts/set-virtual-channels/contracts/lib/ECTools.sol",
  "compiler": {
    "name": "solc",
    "version": "0.4.24+commit.e67f0147.Emscripten.clang"
  },
  "schemaVersion": "2.0.1",
  "updatedAt": "2018-06-25T22:00:33.568Z"
}