{
  "contractName": "LedgerChannel",
  "abi": [
    {
      "constant": true,
      "inputs": [
        {
          "name": "",
          "type": "bytes32"
        }
      ],
      "name": "virtualChannels",
      "outputs": [
        {
          "name": "isClose",
          "type": "bool"
        },
        {
          "name": "isInSettlementState",
          "type": "bool"
        },
        {
          "name": "sequence",
          "type": "uint256"
        },
        {
          "name": "challenger",
          "type": "address"
        },
        {
          "name": "updateVCtimeout",
          "type": "uint256"
        },
        {
          "name": "partyA",
          "type": "address"
        },
        {
          "name": "partyB",
          "type": "address"
        },
        {
          "name": "partyI",
          "type": "address"
        },
        {
          "name": "balanceA",
          "type": "uint256"
        },
        {
          "name": "balanceB",
          "type": "uint256"
        }
      ],
      "payable": false,
      "stateMutability": "view",
      "type": "function"
    },
    {
      "constant": true,
      "inputs": [],
      "name": "numChannels",
      "outputs": [
        {
          "name": "",
          "type": "uint256"
        }
      ],
      "payable": false,
      "stateMutability": "view",
      "type": "function"
    },
    {
      "constant": true,
      "inputs": [],
      "name": "confirmTime",
      "outputs": [
        {
          "name": "",
          "type": "uint256"
        }
      ],
      "payable": false,
      "stateMutability": "view",
      "type": "function"
    },
    {
      "constant": true,
      "inputs": [],
      "name": "NAME",
      "outputs": [
        {
          "name": "",
          "type": "string"
        }
      ],
      "payable": false,
      "stateMutability": "view",
      "type": "function"
    },
    {
      "constant": true,
      "inputs": [
        {
          "name": "",
          "type": "bytes32"
        }
      ],
      "name": "Channels",
      "outputs": [
        {
          "name": "partyA",
          "type": "address"
        },
        {
          "name": "partyI",
          "type": "address"
        },
        {
          "name": "balanceA",
          "type": "uint256"
        },
        {
          "name": "balanceI",
          "type": "uint256"
        },
        {
          "name": "sequence",
          "type": "uint256"
        },
        {
          "name": "stateHash",
          "type": "bytes32"
        },
        {
          "name": "VCrootHash",
          "type": "bytes32"
        },
        {
          "name": "LCopenTimeout",
          "type": "uint256"
        },
        {
          "name": "updateLCtimeout",
          "type": "uint256"
        },
        {
          "name": "isOpen",
          "type": "bool"
        },
        {
          "name": "isUpdateLCSettling",
          "type": "bool"
        },
        {
          "name": "numOpenVC",
          "type": "uint256"
        }
      ],
      "payable": false,
      "stateMutability": "view",
      "type": "function"
    },
    {
      "constant": true,
      "inputs": [],
      "name": "VERSION",
      "outputs": [
        {
          "name": "",
          "type": "string"
        }
      ],
      "payable": false,
      "stateMutability": "view",
      "type": "function"
    },
    {
      "anonymous": false,
      "inputs": [
        {
          "indexed": true,
          "name": "channelId",
          "type": "bytes32"
        },
        {
          "indexed": true,
          "name": "partyA",
          "type": "address"
        },
        {
          "indexed": true,
          "name": "partyI",
          "type": "address"
        },
        {
          "indexed": false,
          "name": "balanceA",
          "type": "uint256"
        }
      ],
      "name": "DidLCOpen",
      "type": "event"
    },
    {
      "anonymous": false,
      "inputs": [
        {
          "indexed": true,
          "name": "channelId",
          "type": "bytes32"
        },
        {
          "indexed": false,
          "name": "balanceI",
          "type": "uint256"
        }
      ],
      "name": "DidLCJoin",
      "type": "event"
    },
    {
      "anonymous": false,
      "inputs": [
        {
          "indexed": true,
          "name": "channelId",
          "type": "bytes32"
        },
        {
          "indexed": true,
          "name": "recipient",
          "type": "address"
        },
        {
          "indexed": false,
          "name": "deposit",
          "type": "uint256"
        }
      ],
      "name": "DidLCDeposit",
      "type": "event"
    },
    {
      "anonymous": false,
      "inputs": [
        {
          "indexed": true,
          "name": "channelId",
          "type": "bytes32"
        },
        {
          "indexed": false,
          "name": "sequence",
          "type": "uint256"
        },
        {
          "indexed": false,
          "name": "numOpenVc",
          "type": "uint256"
        },
        {
          "indexed": false,
          "name": "balanceA",
          "type": "uint256"
        },
        {
          "indexed": false,
          "name": "balanceI",
          "type": "uint256"
        },
        {
          "indexed": false,
          "name": "vcRoot",
          "type": "bytes32"
        }
      ],
      "name": "DidLCUpdateState",
      "type": "event"
    },
    {
      "anonymous": false,
      "inputs": [
        {
          "indexed": true,
          "name": "channelId",
          "type": "bytes32"
        },
        {
          "indexed": false,
          "name": "balanceA",
          "type": "uint256"
        },
        {
          "indexed": false,
          "name": "balanceI",
          "type": "uint256"
        }
      ],
      "name": "DidLCClose",
      "type": "event"
    },
    {
      "anonymous": false,
      "inputs": [
        {
          "indexed": true,
          "name": "lcId",
          "type": "bytes32"
        },
        {
          "indexed": true,
          "name": "vcId",
          "type": "bytes32"
        },
        {
          "indexed": false,
          "name": "proof",
          "type": "bytes"
        },
        {
          "indexed": false,
          "name": "sequence",
          "type": "uint256"
        },
        {
          "indexed": false,
          "name": "partyA",
          "type": "address"
        },
        {
          "indexed": false,
          "name": "partyB",
          "type": "address"
        },
        {
          "indexed": false,
          "name": "balanceA",
          "type": "uint256"
        },
        {
          "indexed": false,
          "name": "balanceB",
          "type": "uint256"
        }
      ],
      "name": "DidVCInit",
      "type": "event"
    },
    {
      "anonymous": false,
      "inputs": [
        {
          "indexed": true,
          "name": "lcId",
          "type": "bytes32"
        },
        {
          "indexed": true,
          "name": "vcId",
          "type": "bytes32"
        },
        {
          "indexed": false,
          "name": "updateSeq",
          "type": "uint256"
        },
        {
          "indexed": false,
          "name": "partyA",
          "type": "address"
        },
        {
          "indexed": false,
          "name": "partyB",
          "type": "address"
        },
        {
          "indexed": false,
          "name": "updateBalA",
          "type": "uint256"
        },
        {
          "indexed": false,
          "name": "updateBalB",
          "type": "uint256"
        },
        {
          "indexed": false,
          "name": "challenger",
          "type": "address"
        }
      ],
      "name": "DidVCSettle",
      "type": "event"
    },
    {
      "anonymous": false,
      "inputs": [
        {
          "indexed": true,
          "name": "lcId",
          "type": "bytes32"
        },
        {
          "indexed": true,
          "name": "vcId",
          "type": "bytes32"
        },
        {
          "indexed": false,
          "name": "balanceA",
          "type": "uint256"
        },
        {
          "indexed": false,
          "name": "balanceB",
          "type": "uint256"
        }
      ],
      "name": "DidVCClose",
      "type": "event"
    },
    {
      "constant": false,
      "inputs": [
        {
          "name": "_lcID",
          "type": "bytes32"
        },
        {
          "name": "_partyI",
          "type": "address"
        }
      ],
      "name": "createChannel",
      "outputs": [],
      "payable": true,
      "stateMutability": "payable",
      "type": "function"
    },
    {
      "constant": false,
      "inputs": [
        {
          "name": "_lcID",
          "type": "bytes32"
        }
      ],
      "name": "LCOpenTimeout",
      "outputs": [],
      "payable": false,
      "stateMutability": "nonpayable",
      "type": "function"
    },
    {
      "constant": false,
      "inputs": [
        {
          "name": "_lcID",
          "type": "bytes32"
        }
      ],
      "name": "joinChannel",
      "outputs": [],
      "payable": true,
      "stateMutability": "payable",
      "type": "function"
    },
    {
      "constant": false,
      "inputs": [
        {
          "name": "_lcID",
          "type": "bytes32"
        },
        {
          "name": "recipient",
          "type": "address"
        }
      ],
      "name": "deposit",
      "outputs": [],
      "payable": true,
      "stateMutability": "payable",
      "type": "function"
    },
    {
      "constant": false,
      "inputs": [
        {
          "name": "_lcID",
          "type": "bytes32"
        },
        {
          "name": "_sequence",
          "type": "uint256"
        },
        {
          "name": "_balanceA",
          "type": "uint256"
        },
        {
          "name": "_balanceI",
          "type": "uint256"
        },
        {
          "name": "_sigA",
          "type": "string"
        },
        {
          "name": "_sigI",
          "type": "string"
        }
      ],
      "name": "consensusCloseChannel",
      "outputs": [],
      "payable": false,
      "stateMutability": "nonpayable",
      "type": "function"
    },
    {
      "constant": false,
      "inputs": [
        {
          "name": "_lcID",
          "type": "bytes32"
        },
        {
          "name": "_sequence",
          "type": "uint256"
        },
        {
          "name": "_numOpenVc",
          "type": "uint256"
        },
        {
          "name": "_balanceA",
          "type": "uint256"
        },
        {
          "name": "_balanceI",
          "type": "uint256"
        },
        {
          "name": "_VCroot",
          "type": "bytes32"
        },
        {
          "name": "_sigA",
          "type": "string"
        },
        {
          "name": "_sigI",
          "type": "string"
        }
      ],
      "name": "updateLCstate",
      "outputs": [],
      "payable": false,
      "stateMutability": "nonpayable",
      "type": "function"
    },
    {
      "constant": false,
      "inputs": [
        {
          "name": "_lcID",
          "type": "bytes32"
        },
        {
          "name": "_vcID",
          "type": "bytes32"
        },
        {
          "name": "_proof",
          "type": "bytes"
        },
        {
          "name": "_sequence",
          "type": "uint256"
        },
        {
          "name": "_partyA",
          "type": "address"
        },
        {
          "name": "_partyB",
          "type": "address"
        },
        {
          "name": "_balanceA",
          "type": "uint256"
        },
        {
          "name": "_balanceB",
          "type": "uint256"
        },
        {
          "name": "sigA",
          "type": "string"
        },
        {
          "name": "sigB",
          "type": "string"
        }
      ],
      "name": "initVCstate",
      "outputs": [],
      "payable": false,
      "stateMutability": "nonpayable",
      "type": "function"
    },
    {
      "constant": false,
      "inputs": [
        {
          "name": "_lcID",
          "type": "bytes32"
        },
        {
          "name": "_vcID",
          "type": "bytes32"
        },
        {
          "name": "updateSeq",
          "type": "uint256"
        },
        {
          "name": "_partyA",
          "type": "address"
        },
        {
          "name": "_partyB",
          "type": "address"
        },
        {
          "name": "updateBalA",
          "type": "uint256"
        },
        {
          "name": "updateBalB",
          "type": "uint256"
        },
        {
          "name": "sigA",
          "type": "string"
        },
        {
          "name": "sigB",
          "type": "string"
        }
      ],
      "name": "settleVC",
      "outputs": [],
      "payable": false,
      "stateMutability": "nonpayable",
      "type": "function"
    },
    {
      "constant": false,
      "inputs": [
        {
          "name": "_lcID",
          "type": "bytes32"
        },
        {
          "name": "_vcID",
          "type": "bytes32"
        }
      ],
      "name": "closeVirtualChannel",
      "outputs": [],
      "payable": false,
      "stateMutability": "nonpayable",
      "type": "function"
    },
    {
      "constant": false,
      "inputs": [
        {
          "name": "_lcID",
          "type": "bytes32"
        }
      ],
      "name": "byzantineCloseChannel",
      "outputs": [],
      "payable": false,
      "stateMutability": "nonpayable",
      "type": "function"
    }
  ],
  "bytecode": "0x608060405260008055600060015534801561001957600080fd5b50612393806100296000396000f3006080604052600436106100e45763ffffffff7c01000000000000000000000000000000000000000000000000000000006000350416622e1d7e81146100e9578063126a8ec014610103578063169401251461011a5780632b45b1911461019157806336a84fe71461029357806365dd43eb1461033c57806398bd566314610363578063a3f4df7e14610378578063a496078014610402578063b6f5a746146104b4578063ce329570146104bf578063cec4c855146104d7578063cedc55b8146104ee578063d32fc05a146105b1578063fdb0402314610638578063ffa1ad7414610653575b600080fd5b3480156100f557600080fd5b50610101600435610668565b005b610101600435600160a060020a03602435166107cb565b34801561012657600080fd5b506101326004356109d0565b604080519a15158b5298151560208b015289890197909752600160a060020a0395861660608a0152608089019490945291841660a0880152831660c087015290911660e085015261010084015261012083015251908190036101400190f35b34801561019d57600080fd5b50604080516020600460443581810135601f810184900484028501840190955284845261010194823594602480359536959460649492019190819084018382808284375050604080516020601f60a08a01358b0180359182018390048302840183018552818452989b8a359b600160a060020a03848d013581169c96870135169a60608701359a5060808701359950919750955060c090940193820191819084018382808284375050604080516020601f89358b018035918201839004830284018301909452808352979a999881019791965091820194509250829150840183828082843750949750610a359650505050505050565b34801561029f57600080fd5b50604080516020601f608435600481810135928301849004840285018401909552818452610101948035946024803595604435956064359536959460a494909391019190819084018382808284375050604080516020601f89358b018035918201839004830284018301909452808352979a999881019791965091820194509250829150840183828082843750949750610f739650505050505050565b34801561034857600080fd5b506103516113a6565b60408051918252519081900360200190f35b34801561036f57600080fd5b506103516113ac565b34801561038457600080fd5b5061038d6113b2565b6040805160208082528351818301528351919283929083019185019080838360005b838110156103c75781810151838201526020016103af565b50505050905090810190601f1680156103f45780820380516001836020036101000a031916815260200191505b509250505060405180910390f35b34801561040e57600080fd5b50604080516020601f60c43560048181013592830184900484028501840190955281845261010194803594602480359560443595606435956084359560a435953695919460e494919390920191819084018382808284375050604080516020601f89358b018035918201839004830284018301909452808352979a9998810197919650918201945092508291508401838280828437509497506113e99650505050505050565b6101016004356117b2565b3480156104cb57600080fd5b5061010160043561185b565b610101600435600160a060020a03602435166119ae565b3480156104fa57600080fd5b50604080516020600460e43581810135601f810184900484028501840190955284845261010194823594602480359560443595606435600160a060020a03908116966084359091169560a4359560c4359536956101049492939190920191819084018382808284375050604080516020601f89358b018035918201839004830284018301909452808352979a999881019791965091820194509250829150840183828082843750949750611b529650505050505050565b3480156105bd57600080fd5b506105c960043561201d565b60408051600160a060020a039d8e1681529b909c1660208c01528a8c019990995260608a0197909752608089019590955260a088019390935260c087019190915260e0860152610100850152151561012084015215156101408301526101608201529051908190036101800190f35b34801561064457600080fd5b50610101600435602435612090565b34801561065f57600080fd5b5061038d6122f0565b600081815260036020526040902054600160a060020a0316331480156106a0575060008181526003602052604090206009015460ff16155b15156106ab57600080fd5b6000818152600360205260409020600701544211156107c85760008181526003602052604080822080546002909101549151600160a060020a039091169282156108fc02929190818181858888f1935050505015801561070f573d6000803e3d6000fd5b506000818152600360208181526040808420805473ffffffffffffffffffffffffffffffffffffffff199081168255600182018054909116905560028101859055928301849055600483018490556005830184905560068301849055600783018490556008830184905560098301805461ffff19169055600a909201839055815183815290810192909252805183927fdd7bdb2058a8a82d09caffc5e510ecc0742535eb4c1dee30dc9e7ac979bc0bde92908290030190a25b50565b600160a060020a03811615156108565760408051600080516020612328833981519152815260206004820152602960248201527f4e6f2070617274794920616464726573732070726f766964656420746f204c4360448201527f206372656174696f6e0000000000000000000000000000000000000000000000606482015290519081900360840190fd5b60008281526003602052604090206009015460ff16156108c55760408051600080516020612328833981519152815260206004820152601460248201527f4368616e6e656c20616c7265616479206f70656e000000000000000000000000604482015290519081900360640190fd5b600082815260036020526040902060040154156109315760408051600080516020612328833981519152815260206004820152601d60248201527f4368616e6e656c2068617320616c7265616479206265656e2075736564000000604482015290519081900360640190fd5b6000828152600360209081526040808320805473ffffffffffffffffffffffffffffffffffffffff19908116339081178355600183018054600160a060020a03891693168317905534600284018190556004840187905595544201600790930192909255825194855291519193909286927f68126d20cacc996115635674c7f52e21d4899bec2433229fea94abccff19f2459281900390910190a45050565b600260208190526000918252604090912080546001820154928201546003830154600484015460058501546006860154600787015460089097015460ff808816996101009098041697600160a060020a0396871696948516949384169390921691908a565b60008981526002602052604081205460ff1615610aa15760408051600080516020612328833981519152815260206004820152600d60248201527f564320697320636c6f7365642e00000000000000000000000000000000000000604482015290519081900360640190fd5b60008a81526002602052604090206001015415610b0d5760408051600080516020612328833981519152815260206004820152601560248201527f56432073657175656e6365206973206e6f7420302e0000000000000000000000604482015290519081900360640190fd5b60008b8152600360205260409020600801544211610b7a5760408051600080516020612328833981519152815260206004820152601060248201527f4c432074696d656f7574206f7665722e00000000000000000000000000000000604482015290519081900360640190fd5b6040805160208082018d90528183018b90526c01000000000000000000000000600160a060020a03808c16820260608501528a160260748301526088820188905260a88083018890528351808403909101815260c890920192839052815191929182918401908083835b60208310610c035780518252601f199092019160209182019101610be4565b51815160209384036101000a600019018019909216911617905260408051929094018290038220600080516020612348833981519152835260048301818152602484019586528a5160448501528a5191985073__ECTools_______________________________975063dca95419965088958b9550909390926064909101919085019080838360005b83811015610ca4578181015183820152602001610c8c565b50505050905090810190601f168015610cd15780820380516001836020036101000a031916815260200191505b50935050505060206040518083038186803b158015610cef57600080fd5b505af4158015610d03573d6000803e3d6000fd5b505050506040513d6020811015610d1957600080fd5b5051600160a060020a03888116911614610d3257600080fd5b604080516000805160206123488339815191528152600481018381526024820192835284516044830152845173__ECTools_______________________________9363dca95419938693889390929160640190602085019080838360005b83811015610da8578181015183820152602001610d90565b50505050905090810190601f168015610dd55780820380516001836020036101000a031916815260200191505b50935050505060206040518083038186803b158015610df357600080fd5b505af4158015610e07573d6000803e3d6000fd5b505050506040513d6020811015610e1d57600080fd5b5051600160a060020a03878116911614610e3657600080fd5b60008a8152600260209081526040808320600481018054600160a060020a03808e1673ffffffffffffffffffffffffffffffffffffffff199283168117909355600584018054918e16919092168117909155600183018e90558554420160039093019290925582518085018e90529283015260608201526080810188905260a0810187905260c08082528c51908201528b518d938f937fcffb5a92cc488e2eed0a946d6ec257262e6d235c83295ebfbf4f11712330ca9a938f938f938f938f938f938f939192839260e0840192918b0191908190849084905b83811015610f27578181015183820152602001610f0f565b50505050905090810190601f168015610f545780820380516001836020036101000a031916815260200191505b5097505050505050505060405180910390a35050505050505050505050565b6000868152600360205260408120600401548611610f9057600080fd5b600087815260036020908152604080832080546001919091015482517f010000000000000000000000000000000000000000000000000000000000000081860152602181018c90526041810186905260618101959095526c01000000000000000000000000600160a060020a0392831681026081870152911602609584015260a9830188905260c98084018890528151808503909101815260e990930190819052825190918291908401908083835b6020831061105e5780518252601f19909201916020918201910161103f565b51815160209384036101000a600019018019909216911617905260408051929094018290038220600080516020612348833981519152835260048301818152602484019586528a5160448501528a5191985073__ECTools_______________________________975063dca95419965088958b9550909390926064909101919085019080838360005b838110156110ff5781810151838201526020016110e7565b50505050905090810190601f16801561112c5780820380516001836020036101000a031916815260200191505b50935050505060206040518083038186803b15801561114a57600080fd5b505af415801561115e573d6000803e3d6000fd5b505050506040513d602081101561117457600080fd5b5051600088815260036020526040902054600160a060020a0390811691161461119c57600080fd5b604080516000805160206123488339815191528152600481018381526024820192835284516044830152845173__ECTools_______________________________9363dca95419938693889390929160640190602085019080838360005b838110156112125781810151838201526020016111fa565b50505050905090810190601f16801561123f5780820380516001836020036101000a031916815260200191505b50935050505060206040518083038186803b15801561125d57600080fd5b505af4158015611271573d6000803e3d6000fd5b505050506040513d602081101561128757600080fd5b5051600088815260036020526040902060010154600160a060020a039081169116146112b257600080fd5b600087815260036020526040808220549051600160a060020a039091169187156108fc02918891818181858888f193505050501580156112f6573d6000803e3d6000fd5b50600087815260036020526040808220600101549051600160a060020a039091169186156108fc02918791818181858888f1935050505015801561133e573d6000803e3d6000fd5b50600087815260036020908152604091829020600901805460ff19169055600180546000190190558151878152908101869052815189927fdd7bdb2058a8a82d09caffc5e510ecc0742535eb4c1dee30dc9e7ac979bc0bde928290030190a250505050505050565b60015481565b60005481565b60408051808201909152600e81527f4c6564676572204368616e6e656c000000000000000000000000000000000000602082015281565b600088815260036020526040812060040154881161140657600080fd5b60008981526003602090815260408083208054600190910154825180850195909552602185018d9052604185018c9052606185018990526c01000000000000000000000000600160a060020a0392831681026081870152911602609584015260a9830189905260c98084018990528151808503909101815260e990930190819052825190918291908401908083835b602083106114b45780518252601f199092019160209182019101611495565b51815160209384036101000a600019018019909216911617905260408051929094018290038220600080516020612348833981519152835260048301818152602484019586528a5160448501528a5191985073__ECTools_______________________________975063dca95419965088958b9550909390926064909101919085019080838360005b8381101561155557818101518382015260200161153d565b50505050905090810190601f1680156115825780820380516001836020036101000a031916815260200191505b50935050505060206040518083038186803b1580156115a057600080fd5b505af41580156115b4573d6000803e3d6000fd5b505050506040513d60208110156115ca57600080fd5b505160008a815260036020526040902054600160a060020a039081169116146115f257600080fd5b604080516000805160206123488339815191528152600481018381526024820192835284516044830152845173__ECTools_______________________________9363dca95419938693889390929160640190602085019080838360005b83811015611668578181015183820152602001611650565b50505050905090810190601f1680156116955780820380516001836020036101000a031916815260200191505b50935050505060206040518083038186803b1580156116b357600080fd5b505af41580156116c7573d6000803e3d6000fd5b505050506040513d60208110156116dd57600080fd5b505160008a815260036020526040902060010154600160a060020a0390811691161461170857600080fd5b6000898152600360208181526040808420600481018d9055600a81018c9055600281018b90559283018990556006830188905560098301805461ff0019166101001790559254420160089092019190915581518a8152908101899052808201889052606081018790526080810186905290518a917f260a52f089d69e0b856a9c8afdd25b5a369f573ec4417f54c9345b1a2c42b244919081900360a00190a2505050505050505050565b60008181526003602052604090206009015460ff16156117d157600080fd5b600081815260036020526040902060010154600160a060020a031633146117f757600080fd5b60008181526003602081815260409283902034928101839055600901805460ff191660019081179091558054810190558251918252915183927f196bcc18b8e4ce5e969796910301b87767ce277a789a28bf942745297f07faff928290030190a250565b600081815260036020526040812060090154819060ff61010090910416151560011461188657600080fd5b6000838152600360205260409020600a0154156118a257600080fd5b505060008181526003602081905260408083206002810180549382018054918690558590559054915192939092600160a060020a039092169184156108fc0291859190818181858888f19350505050158015611902573d6000803e3d6000fd5b50600083815260036020526040808220600101549051600160a060020a039091169183156108fc02918491818181858888f1935050505015801561194a573d6000803e3d6000fd5b50600083815260036020908152604091829020600901805460ff19169055600180546000190190558151848152908101839052815185927fdd7bdb2058a8a82d09caffc5e510ecc0742535eb4c1dee30dc9e7ac979bc0bde928290030190a2505050565b60008281526003602052604090206009015460ff161515600114611a475760408051600080516020612328833981519152815260206004820152602660248201527f547269656420616464696e672066756e647320746f206120636c6f736564206360448201527f68616e6e656c0000000000000000000000000000000000000000000000000000606482015290519081900360840190fd5b600082815260036020526040902054600160a060020a0382811691161480611a8b5750600082815260036020526040902060010154600160a060020a038281169116145b1515611a9657600080fd5b600082815260036020526040902054600160a060020a0382811691161415611ad05760008281526003602052604090206002018054340190555b600082815260036020526040902060010154600160a060020a0382811691161415611b0e576000828152600360208190526040909120018054340190555b604080513481529051600160a060020a0383169184917f8c72346718d0a1cae9c1c91c251ea5b04e497ddd50fd8938842c4f25541717359181900360200190a35050565b60008881526002602052604081205460ff1615611bbe5760408051600080516020612328833981519152815260206004820152600d60248201527f564320697320636c6f7365642e00000000000000000000000000000000000000604482015290519081900360640190fd5b6000898152600260205260409020600101548811611c515760408051600080516020612328833981519152815260206004820152602b60248201527f56432073657175656e636520697320686967686572207468616e20757064617460448201527f652073657175656e63652e000000000000000000000000000000000000000000606482015290519081900360840190fd5b60008a8152600360205260409020600801544211611c6e57600080fd5b6040805160208082018c90528183018b90526c01000000000000000000000000600160a060020a03808c16820260608501528a160260748301526088820188905260a88083018890528351808403909101815260c890920192839052815191929182918401908083835b60208310611cf75780518252601f199092019160209182019101611cd8565b51815160209384036101000a600019018019909216911617905260408051929094018290038220600080516020612348833981519152835260048301818152602484019586528a5160448501528a5191985073__ECTools_______________________________975063dca95419965088958b9550909390926064909101919085019080838360005b83811015611d98578181015183820152602001611d80565b50505050905090810190601f168015611dc55780820380516001836020036101000a031916815260200191505b50935050505060206040518083038186803b158015611de357600080fd5b505af4158015611df7573d6000803e3d6000fd5b505050506040513d6020811015611e0d57600080fd5b505160008a815260026020526040902060040154600160a060020a03908116911614611e3857600080fd5b604080516000805160206123488339815191528152600481018381526024820192835284516044830152845173__ECTools_______________________________9363dca95419938693889390929160640190602085019080838360005b83811015611eae578181015183820152602001611e96565b50505050905090810190601f168015611edb5780820380516001836020036101000a031916815260200191505b50935050505060206040518083038186803b158015611ef957600080fd5b505af4158015611f0d573d6000803e3d6000fd5b505050506040513d6020811015611f2357600080fd5b505160008a815260026020526040902060050154600160a060020a03908116911614611f4e57600080fd5b6000898152600260208181526040808420928301805473ffffffffffffffffffffffffffffffffffffffff191633908117909155600184018d9055600784018a905560088401899055935442016003840155825461ff0019166101001790925581518b8152600160a060020a038b81169282019290925290891681830152606081018890526080810187905260a0810192909252518a918c917f14fdad3a0bdce03522a367ac4fba44b3fdb91134913ee9f29ec65db2d9b44e5d9181900360c00190a350505050505050505050565b600360208190526000918252604090912080546001820154600283015493830154600484015460058501546006860154600787015460088801546009890154600a90990154600160a060020a039889169a989097169895969495939492939192909160ff8082169261010090920416908c565b600081815260026020526040902054610100900460ff1615156121025760408051600080516020612328833981519152815260206004820152601e60248201527f5643206973206e6f7420696e20736574746c656d656e742073746174652e0000604482015290519081900360640190fd5b60008181526002602052604090206003015442116121955760408051600080516020612328833981519152815260206004820152602260248201527f5570646174652076632074696d656f757420686173206e6f7420656c6170736560448201527f642e000000000000000000000000000000000000000000000000000000000000606482015290519081900360840190fd5b6000828152600360209081526040808320600a8101805460001901905554848452600290925290912060040154600160a060020a039081169116141561221657600081815260026020818152604080842060078101548786526003938490529190942092830180549091019055600890920154910180549091019055612287565b600082815260036020908152604080832054848452600290925290912060050154600160a060020a0390811691161415612287576000818152600260208181526040808420600881015487865260039384905291909420928301805490910190556007909201549101805490910190555b600081815260026020908152604091829020805460ff1916600117815560078101546008909101548351918252918101919091528151839285927f6ffd15c8707cc55ead84f4bd6e1a07360d2a825d7dacb1456403604948e7ebbf929081900390910190a35050565b60408051808201909152600581527f302e302e31000000000000000000000000000000000000000000000000000000602082015281560008c379a000000000000000000000000000000000000000000000000000000000dca9541900000000000000000000000000000000000000000000000000000000a165627a7a72305820f2e12cb8743fb4e2dd6f9a190069de34bc3e6e7cd2e7665dbc032a2e6f32ac370029",
  "source": "pragma solidity ^0.4.23;\n\nimport \"./lib/ECTools.sol\";\n\n/// @title Set Virtual Channels - A layer2 hub and spoke payment network \n/// @author Nathan Ginnever\n\ncontract LedgerChannel {\n\n    string public constant NAME = \"Ledger Channel\";\n    string public constant VERSION = \"0.0.1\";\n\n    // timeout storage\n    uint256 public confirmTime = 0 minutes;\n\n    uint256 public numChannels = 0;\n\n    event DidLCOpen (\n        bytes32 indexed channelId,\n        address indexed partyA,\n        address indexed partyI,\n        uint256 balanceA\n    );\n\n    event DidLCJoin (\n        bytes32 indexed channelId,\n        uint256 balanceI\n    );\n\n    event DidLCDeposit (\n        bytes32 indexed channelId,\n        address indexed recipient,\n        uint256 deposit\n    );\n\n    event DidLCUpdateState (\n        bytes32 indexed channelId, \n        uint256 sequence, \n        uint256 numOpenVc, \n        uint256 balanceA, \n        uint256 balanceI, \n        bytes32 vcRoot\n    );\n\n    event DidLCClose (\n        bytes32 indexed channelId,\n        uint256 balanceA,\n        uint256 balanceI\n    );\n\n    event DidVCInit (\n        bytes32 indexed lcId, \n        bytes32 indexed vcId, \n        bytes proof, \n        uint256 sequence, \n        address partyA, \n        address partyB, \n        uint256 balanceA, \n        uint256 balanceB \n    );\n\n    event DidVCSettle (\n        bytes32 indexed lcId, \n        bytes32 indexed vcId,\n        uint256 updateSeq, \n        address partyA, \n        address partyB, \n        uint256 updateBalA, \n        uint256 updateBalB,\n        address challenger\n    );\n\n    event DidVCClose(\n        bytes32 indexed lcId, \n        bytes32 indexed vcId, \n        uint256 balanceA, \n        uint256 balanceB\n    );\n\n    struct Channel {\n        address partyA;\n        address partyI;\n        uint256 balanceA;\n        uint256 balanceI;\n        uint256 sequence;\n        bytes32 stateHash;\n        bytes32 VCrootHash;\n        uint256 LCopenTimeout;\n        uint256 updateLCtimeout; // when update LC times out\n        bool isOpen; // true when both parties have joined\n        bool isUpdateLCSettling;\n        uint256 numOpenVC;\n        //address closingParty;\n    }\n\n    // virtual-channel state\n    struct VirtualChannel {\n        bool isClose;\n        bool isInSettlementState;\n        uint256 sequence;\n        address challenger; // Initiator of challenge\n        uint256 updateVCtimeout; // when update VC times out\n        // channel state\n        address partyA; // VC participant A\n        address partyB; // VC participant B\n        address partyI; // LC hub\n        uint256 balanceA;\n        uint256 balanceB;\n        //uint256 balanceI;\n    }\n\n    mapping(bytes32 => VirtualChannel) public virtualChannels;\n    mapping(bytes32 => Channel) public Channels;\n\n    function createChannel(bytes32 _lcID, address _partyI) public payable {\n        require(_partyI != 0x0, \"No partyI address provided to LC creation\");\n        require(Channels[_lcID].isOpen == false, \"Channel already open\");\n        require(Channels[_lcID].sequence == 0, \"Channel has already been used\");\n        // Set initial ledger channel state\n        // Alice must execute this and we assume the initial state \n        // to be signed from this requirement\n        // Alternative is to check a sig as in joinChannel\n        Channels[_lcID].partyA = msg.sender;\n        Channels[_lcID].partyI = _partyI;\n        Channels[_lcID].balanceA = msg.value;\n        Channels[_lcID].sequence = 0;\n        // is close flag, lc state sequence, number open vc, vc root hash, partyA... \n        //Channels[_lcID].stateHash = keccak256(uint256(0), uint256(0), uint256(0), bytes32(0x0), bytes32(msg.sender), bytes32(_partyI), balanceA, balanceI);\n        Channels[_lcID].LCopenTimeout = now + confirmTime;\n\n        emit DidLCOpen(_lcID, msg.sender, _partyI, msg.value);\n    }\n\n    function LCOpenTimeout(bytes32 _lcID) public {\n        require(msg.sender == Channels[_lcID].partyA && Channels[_lcID].isOpen == false);\n        if (now > Channels[_lcID].LCopenTimeout) {\n            Channels[_lcID].partyA.transfer(Channels[_lcID].balanceA);\n            // only safe to delete since no action was taken on this channel\n            delete Channels[_lcID];\n\n            emit DidLCClose(_lcID, Channels[_lcID].balanceA, 0);\n        }\n    }\n\n    function joinChannel(bytes32 _lcID) public payable {\n        // require the channel is not open yet\n        require(Channels[_lcID].isOpen == false);\n        require(msg.sender == Channels[_lcID].partyI);\n        // Initial state\n        //address recover = ECTools.recoverSigner(Channels[_lcID].stateHash, _sigI);\n        Channels[_lcID].balanceI = msg.value;\n\n        // no longer allow joining functions to be called\n        Channels[_lcID].isOpen = true;\n        numChannels++;\n\n        emit DidLCJoin(_lcID, msg.value);\n    }\n\n\n    // additive updates of monetary state\n    function deposit(bytes32 _lcID, address recipient) public payable {\n        require(Channels[_lcID].isOpen == true, \"Tried adding funds to a closed channel\");\n        require(recipient == Channels[_lcID].partyA || recipient == Channels[_lcID].partyI);\n\n        if (Channels[_lcID].partyA == recipient) { Channels[_lcID].balanceA += msg.value; }\n        if (Channels[_lcID].partyI == recipient) { Channels[_lcID].balanceI += msg.value; }\n        \n        emit DidLCDeposit(_lcID, recipient, msg.value);\n    }\n\n    // TODO: Check there are no open virtual channels, the client should have cought this before signing a close LC state update\n    function consensusCloseChannel(\n        bytes32 _lcID, \n        uint256 _sequence, \n        uint256 _balanceA, \n        uint256 _balanceI, \n        string _sigA, \n        string _sigI\n    ) \n        public \n    {\n        // assume num open vc is 0 and root hash is 0x0\n        require(Channels[_lcID].sequence < _sequence);\n        bytes32 _state = keccak256(\n            abi.encodePacked(\n                true,\n                _sequence,\n                uint256(0),\n                bytes32(0x0),\n                Channels[_lcID].partyA, \n                Channels[_lcID].partyI, \n                _balanceA, \n                _balanceI\n            )\n        );\n\n        require(Channels[_lcID].partyA == ECTools.recoverSigner(_state, _sigA));\n        require(Channels[_lcID].partyI == ECTools.recoverSigner(_state, _sigI));\n\n        Channels[_lcID].partyA.transfer(_balanceA);\n        Channels[_lcID].partyI.transfer(_balanceI);\n\n        Channels[_lcID].isOpen = false;\n        numChannels--;\n\n        emit DidLCClose(_lcID, _balanceA, _balanceI);\n    }\n\n    // Byzantine functions\n\n    function updateLCstate(\n        bytes32 _lcID, \n        uint256 _sequence, \n        uint256 _numOpenVc, \n        uint256 _balanceA, \n        uint256 _balanceI, \n        bytes32 _VCroot, \n        string _sigA, \n        string _sigI\n    ) \n        public \n    {\n        require(Channels[_lcID].sequence < _sequence); // do same as vc sequence check\n\n        bytes32 _state = keccak256(\n            abi.encodePacked(\n                false, \n                _sequence, \n                _numOpenVc, \n                _VCroot, \n                Channels[_lcID].partyA, \n                Channels[_lcID].partyI, \n                _balanceA, \n                _balanceI\n            )\n        );\n\n        require(Channels[_lcID].partyA == ECTools.recoverSigner(_state, _sigA));\n        require(Channels[_lcID].partyI == ECTools.recoverSigner(_state, _sigI));\n\n        // update LC state\n        Channels[_lcID].sequence = _sequence;\n        Channels[_lcID].numOpenVC = _numOpenVc;\n        Channels[_lcID].balanceA = _balanceA;\n        Channels[_lcID].balanceI = _balanceI;\n        Channels[_lcID].VCrootHash = _VCroot;\n\n        Channels[_lcID].isUpdateLCSettling = true;\n        Channels[_lcID].updateLCtimeout = now + confirmTime;\n\n        // make settlement flag\n\n        emit DidLCUpdateState (\n            _lcID, \n            _sequence, \n            _numOpenVc, \n            _balanceA, \n            _balanceI, \n            _VCroot\n        );\n    }\n\n    function initVCstate(\n        bytes32 _lcID, \n        bytes32 _vcID, \n        bytes _proof, \n        uint256 _sequence, \n        address _partyA, \n        address _partyB, \n        uint256 _balanceA, \n        uint256 _balanceB, \n        string sigA,\n        string sigB\n    ) \n        public \n    {\n        // sub-channel must be open\n        require(!virtualChannels[_vcID].isClose, \"VC is closed.\");\n        require(virtualChannels[_vcID].sequence == 0, \"VC sequence is not 0.\");\n        // Check time has passed on updateLCtimeout and has not passed the time to store a vc state\n        require(Channels[_lcID].updateLCtimeout < now, \"LC timeout over.\");\n        // partyB is now Ingrid\n        bytes32 _initState = keccak256(\n            abi.encodePacked(_vcID, _sequence, _partyA, _partyB, _balanceA, _balanceB)\n        );\n\n        // Make sure Alice has signed initial vc state (A/B in oldState)\n        require(_partyA == ECTools.recoverSigner(_initState, sigA));\n        require(_partyB == ECTools.recoverSigner(_initState, sigB));\n\n        // Check the oldState is in the root hash\n        //require(_isContained(_initState, _proof, Channels[_lcID].VCrootHash));\n\n        virtualChannels[_vcID].partyA = _partyA; // VC participant A\n        virtualChannels[_vcID].partyB = _partyB; // VC participant B\n        virtualChannels[_vcID].sequence = _sequence;\n        virtualChannels[_vcID].updateVCtimeout = now + confirmTime;\n\n        emit DidVCInit(_lcID, _vcID, _proof, _sequence, _partyA, _partyB, _balanceA, _balanceB);\n    }\n\n    // Params: vc init state, vc final balance, vcID\n    function settleVC(\n        bytes32 _lcID, \n        bytes32 _vcID, \n        uint256 updateSeq, \n        address _partyA, \n        address _partyB, \n        uint256 updateBalA, \n        uint256 updateBalB, \n        string sigA,\n        string sigB\n    ) \n        public \n    {\n        // sub-channel must be open\n        require(!virtualChannels[_vcID].isClose, \"VC is closed.\");\n        require(virtualChannels[_vcID].sequence < updateSeq, \"VC sequence is higher than update sequence.\");\n        // Check time has passed on updateLCtimeout and has not passed the time to store a vc state\n        //require(Channels[_lcID].updateLCtimeout < now && now < virtualChannels[_vcID].updateVCtimeout);\n        require(Channels[_lcID].updateLCtimeout < now); // for testing!\n\n        bytes32 _updateState = keccak256(\n            abi.encodePacked(_vcID, updateSeq, _partyA, _partyB, updateBalA, updateBalB)\n        );\n\n        // Make sure Alice has signed a higher sequence new state\n        require(virtualChannels[_vcID].partyA == ECTools.recoverSigner(_updateState, sigA));\n        require(virtualChannels[_vcID].partyB == ECTools.recoverSigner(_updateState, sigB));\n\n        // store VC data\n        // we may want to record who is initiating on-chain settles\n        virtualChannels[_vcID].challenger = msg.sender;\n        virtualChannels[_vcID].sequence = updateSeq;\n\n        // channel state\n        virtualChannels[_vcID].balanceA = updateBalA;\n        virtualChannels[_vcID].balanceB = updateBalB;\n\n        virtualChannels[_vcID].updateVCtimeout = now + confirmTime;\n        virtualChannels[_vcID].isInSettlementState = true;\n\n        emit DidVCSettle(_lcID, _vcID, updateSeq, _partyA, _partyB, updateBalA, updateBalB, msg.sender);\n    }\n\n    function closeVirtualChannel(bytes32 _lcID, bytes32 _vcID) public {\n        // require(updateLCtimeout > now)\n        require(virtualChannels[_vcID].isInSettlementState, \"VC is not in settlement state.\");\n        require(virtualChannels[_vcID].updateVCtimeout < now, \"Update vc timeout has not elapsed.\");\n        // reduce the number of open virtual channels stored on LC\n        Channels[_lcID].numOpenVC--;\n        // re-introduce the balances back into the LC state from the settled VC\n        // decide if this lc is alice or bob in the vc\n        if(virtualChannels[_vcID].partyA == Channels[_lcID].partyA) {\n            Channels[_lcID].balanceA += virtualChannels[_vcID].balanceA;\n            Channels[_lcID].balanceI += virtualChannels[_vcID].balanceB;\n        } else if (virtualChannels[_vcID].partyB == Channels[_lcID].partyA) {\n            Channels[_lcID].balanceA += virtualChannels[_vcID].balanceB;\n            Channels[_lcID].balanceI += virtualChannels[_vcID].balanceA;\n        }\n        // close vc flags\n        virtualChannels[_vcID].isClose = true;\n\n        emit DidVCClose(_lcID, _vcID, virtualChannels[_vcID].balanceA, virtualChannels[_vcID].balanceB);\n    }\n\n\n    function byzantineCloseChannel(bytes32 _lcID) public{\n        // check settlement flag\n        require(Channels[_lcID].isUpdateLCSettling == true);\n        require(Channels[_lcID].numOpenVC == 0);\n\n        // reentrancy\n        uint256 balanceA = Channels[_lcID].balanceA;\n        uint256 balanceI = Channels[_lcID].balanceI;\n        Channels[_lcID].balanceA = 0;\n        Channels[_lcID].balanceI = 0;\n\n        Channels[_lcID].partyA.transfer(balanceA);\n        Channels[_lcID].partyI.transfer(balanceI);\n        Channels[_lcID].isOpen = false;\n        numChannels--;\n\n        emit DidLCClose(_lcID, balanceA, balanceI);\n    }\n\n    function _isContained(bytes32 _hash, bytes _proof, bytes32 _root) internal pure returns (bool) {\n        bytes32 cursor = _hash;\n        bytes32 proofElem;\n\n        for (uint256 i = 64; i <= _proof.length; i += 32) {\n            assembly { proofElem := mload(add(_proof, i)) }\n\n            if (cursor < proofElem) {\n                cursor = keccak256(abi.encodePacked(cursor, proofElem));\n            } else {\n                cursor = keccak256(abi.encodePacked(proofElem, cursor));\n            }\n        }\n\n        return cursor == _root;\n    }\n}\n",
  "sourcePath": "/home/newton/github/finalitylabs/layer2lib/js-layer2lib/contracts/set-virtual-channels/contracts/LedgerChannel.sol",
  "compiler": {
    "name": "solc",
    "version": "0.4.24+commit.e67f0147.Emscripten.clang"
  },
  "schemaVersion": "2.0.1",
  "updatedAt": "2018-06-25T22:00:33.575Z"
}