{
  "contractName": "MetaChannel",
  "abi": [
    {
      "constant": true,
      "inputs": [],
      "name": "settlementPeriodEnd",
      "outputs": [
        {
          "name": "",
          "type": "uint256"
        }
      ],
      "payable": false,
      "stateMutability": "view",
      "type": "function"
    },
    {
      "constant": true,
      "inputs": [],
      "name": "partyA",
      "outputs": [
        {
          "name": "",
          "type": "address"
        }
      ],
      "payable": false,
      "stateMutability": "view",
      "type": "function"
    },
    {
      "constant": true,
      "inputs": [],
      "name": "partyB",
      "outputs": [
        {
          "name": "",
          "type": "address"
        }
      ],
      "payable": false,
      "stateMutability": "view",
      "type": "function"
    },
    {
      "constant": true,
      "inputs": [],
      "name": "sequence",
      "outputs": [
        {
          "name": "",
          "type": "uint256"
        }
      ],
      "payable": false,
      "stateMutability": "view",
      "type": "function"
    },
    {
      "constant": true,
      "inputs": [],
      "name": "isInSettlementState",
      "outputs": [
        {
          "name": "",
          "type": "uint256"
        }
      ],
      "payable": false,
      "stateMutability": "view",
      "type": "function"
    },
    {
      "constant": true,
      "inputs": [],
      "name": "registry",
      "outputs": [
        {
          "name": "",
          "type": "address"
        }
      ],
      "payable": false,
      "stateMutability": "view",
      "type": "function"
    },
    {
      "constant": true,
      "inputs": [],
      "name": "settlementPeriodLength",
      "outputs": [
        {
          "name": "",
          "type": "uint256"
        }
      ],
      "payable": false,
      "stateMutability": "view",
      "type": "function"
    },
    {
      "constant": true,
      "inputs": [],
      "name": "stateRoot",
      "outputs": [
        {
          "name": "",
          "type": "bytes32"
        }
      ],
      "payable": false,
      "stateMutability": "view",
      "type": "function"
    },
    {
      "constant": true,
      "inputs": [],
      "name": "state",
      "outputs": [
        {
          "name": "",
          "type": "bytes"
        }
      ],
      "payable": false,
      "stateMutability": "view",
      "type": "function"
    },
    {
      "constant": true,
      "inputs": [],
      "name": "isClosed",
      "outputs": [
        {
          "name": "",
          "type": "uint256"
        }
      ],
      "payable": false,
      "stateMutability": "view",
      "type": "function"
    },
    {
      "constant": true,
      "inputs": [],
      "name": "isInSubSettlementState",
      "outputs": [
        {
          "name": "",
          "type": "uint256"
        }
      ],
      "payable": false,
      "stateMutability": "view",
      "type": "function"
    },
    {
      "inputs": [
        {
          "name": "_registry",
          "type": "address"
        },
        {
          "name": "_partyA",
          "type": "address"
        },
        {
          "name": "_partyB",
          "type": "address"
        }
      ],
      "payable": false,
      "stateMutability": "nonpayable",
      "type": "constructor"
    },
    {
      "payable": true,
      "stateMutability": "payable",
      "type": "fallback"
    },
    {
      "constant": false,
      "inputs": [
        {
          "name": "_forceState",
          "type": "bytes"
        },
        {
          "name": "_channelID",
          "type": "uint256"
        }
      ],
      "name": "forcePushSubchannel",
      "outputs": [],
      "payable": true,
      "stateMutability": "payable",
      "type": "function"
    },
    {
      "constant": false,
      "inputs": [
        {
          "name": "_forceState",
          "type": "bytes"
        },
        {
          "name": "_channelID",
          "type": "uint256"
        }
      ],
      "name": "challengeForcePush",
      "outputs": [],
      "payable": false,
      "stateMutability": "nonpayable",
      "type": "function"
    },
    {
      "constant": false,
      "inputs": [
        {
          "name": "_proof",
          "type": "bytes"
        },
        {
          "name": "_state",
          "type": "bytes"
        },
        {
          "name": "_subchannel",
          "type": "bytes"
        },
        {
          "name": "_v",
          "type": "uint8[2]"
        },
        {
          "name": "_r",
          "type": "bytes32[2]"
        },
        {
          "name": "_s",
          "type": "bytes32[2]"
        }
      ],
      "name": "startSettleStateSubchannel",
      "outputs": [],
      "payable": false,
      "stateMutability": "nonpayable",
      "type": "function"
    },
    {
      "constant": false,
      "inputs": [
        {
          "name": "_proof",
          "type": "bytes"
        },
        {
          "name": "_state",
          "type": "bytes"
        },
        {
          "name": "_subchannel",
          "type": "bytes"
        },
        {
          "name": "_v",
          "type": "uint8[2]"
        },
        {
          "name": "_r",
          "type": "bytes32[2]"
        },
        {
          "name": "_s",
          "type": "bytes32[2]"
        }
      ],
      "name": "challengeSettleStateSubchannel",
      "outputs": [],
      "payable": false,
      "stateMutability": "nonpayable",
      "type": "function"
    },
    {
      "constant": false,
      "inputs": [
        {
          "name": "_channelID",
          "type": "uint256"
        }
      ],
      "name": "closeWithTimeoutSubchannel",
      "outputs": [],
      "payable": false,
      "stateMutability": "nonpayable",
      "type": "function"
    },
    {
      "constant": false,
      "inputs": [
        {
          "name": "_proof",
          "type": "bytes"
        },
        {
          "name": "_channelID",
          "type": "uint256"
        },
        {
          "name": "_lockedNonce",
          "type": "uint256"
        },
        {
          "name": "_amount",
          "type": "uint256"
        },
        {
          "name": "_hash",
          "type": "bytes32"
        },
        {
          "name": "_timeout",
          "type": "uint256"
        },
        {
          "name": "_secret",
          "type": "bytes32"
        }
      ],
      "name": "updateHTLCBalances",
      "outputs": [
        {
          "name": "",
          "type": "bool"
        }
      ],
      "payable": false,
      "stateMutability": "nonpayable",
      "type": "function"
    },
    {
      "constant": true,
      "inputs": [],
      "name": "finalizeHTLCupdates",
      "outputs": [
        {
          "name": "",
          "type": "bool"
        }
      ],
      "payable": false,
      "stateMutability": "pure",
      "type": "function"
    },
    {
      "constant": false,
      "inputs": [
        {
          "name": "_state",
          "type": "bytes"
        },
        {
          "name": "_v",
          "type": "uint8[2]"
        },
        {
          "name": "_r",
          "type": "bytes32[2]"
        },
        {
          "name": "_s",
          "type": "bytes32[2]"
        }
      ],
      "name": "startSettle",
      "outputs": [],
      "payable": false,
      "stateMutability": "nonpayable",
      "type": "function"
    },
    {
      "constant": false,
      "inputs": [
        {
          "name": "_state",
          "type": "bytes"
        },
        {
          "name": "_v",
          "type": "uint8[2]"
        },
        {
          "name": "_r",
          "type": "bytes32[2]"
        },
        {
          "name": "_s",
          "type": "bytes32[2]"
        }
      ],
      "name": "challengeSettle",
      "outputs": [],
      "payable": false,
      "stateMutability": "nonpayable",
      "type": "function"
    },
    {
      "constant": false,
      "inputs": [],
      "name": "closeWithTimeout",
      "outputs": [],
      "payable": false,
      "stateMutability": "nonpayable",
      "type": "function"
    },
    {
      "constant": true,
      "inputs": [
        {
          "name": "_s",
          "type": "bytes"
        }
      ],
      "name": "_getInterpreterAddress",
      "outputs": [
        {
          "name": "_ctf",
          "type": "address"
        }
      ],
      "payable": false,
      "stateMutability": "pure",
      "type": "function"
    },
    {
      "constant": true,
      "inputs": [
        {
          "name": "_s",
          "type": "bytes"
        }
      ],
      "name": "_getChannelID",
      "outputs": [
        {
          "name": "_id",
          "type": "uint256"
        }
      ],
      "payable": false,
      "stateMutability": "pure",
      "type": "function"
    },
    {
      "constant": true,
      "inputs": [
        {
          "name": "_data",
          "type": "bytes"
        }
      ],
      "name": "_getSequence",
      "outputs": [
        {
          "name": "_seq",
          "type": "uint256"
        }
      ],
      "payable": false,
      "stateMutability": "pure",
      "type": "function"
    },
    {
      "constant": true,
      "inputs": [
        {
          "name": "_data",
          "type": "bytes"
        }
      ],
      "name": "_getChallengePeriod",
      "outputs": [
        {
          "name": "_length",
          "type": "uint256"
        }
      ],
      "payable": false,
      "stateMutability": "pure",
      "type": "function"
    },
    {
      "constant": true,
      "inputs": [
        {
          "name": "_channelID",
          "type": "uint256"
        }
      ],
      "name": "getSubChannel",
      "outputs": [
        {
          "name": "isSubClose",
          "type": "uint256"
        },
        {
          "name": "isSubInSettlementState",
          "type": "uint256"
        },
        {
          "name": "subSequence",
          "type": "uint256"
        },
        {
          "name": "lockedNonce",
          "type": "uint256"
        },
        {
          "name": "challenger",
          "type": "address"
        },
        {
          "name": "subCTFaddress",
          "type": "address"
        },
        {
          "name": "subSettlementPeriodLength",
          "type": "uint256"
        },
        {
          "name": "subSettlementPeriodEnd",
          "type": "uint256"
        },
        {
          "name": "settledAt",
          "type": "uint256"
        },
        {
          "name": "subState",
          "type": "bytes"
        }
      ],
      "payable": false,
      "stateMutability": "view",
      "type": "function"
    }
  ],
  "bytecode": "0x6080604052600060035560006007556000600855600060095534801561002457600080fd5b50604051606080612082833981016040908152815160208301519190920151600160a060020a038216158015906100635750600160a060020a03811615155b80156100775750600160a060020a03831615155b151561008257600080fd5b600a8054600160a060020a03948516600160a060020a031991821617909155600180549385169382169390931790925560028054919093169116179055611fb4806100ce6000396000f3006080604052600436106101525763ffffffff7c01000000000000000000000000000000000000000000000000000000006000350416620cac26811461015457806302e4b3be146101bf57806310e1d8ca146101d4578063258b5a351461020557806329040113146102c75780633600efca146102dc578063529d15cc1461033557806361bf2c621461034a5780637700a59c1461035f5780637b10399914610374578063841647d7146103895780638a19e0ba146103b2578063916cfd89146104f05780639588eca214610505578063b62d7b421461051a578063b7e99d6514610590578063c15d5657146105a8578063c19d93fb146105f6578063c207008c14610680578063c2b6b58c146106d9578063d70fb39d146106ee578063d9506c5f14610747578063e56dc81414610809578063ee41e751146108fc578063f5ecf1ca14610911578063fbaeb33d14610a4f575b005b34801561016057600080fd5b506040805160206004803580820135601f81018490048402850184019095528484526101ad943694929360249392840191908190840183828082843750949750610aaa9650505050505050565b60408051918252519081900360200190f35b3480156101cb57600080fd5b506101ad610ab1565b3480156101e057600080fd5b506101e9610ab7565b60408051600160a060020a039092168252519081900360200190f35b34801561021157600080fd5b506040805160206004803580820135601f810184900484028501840190955284845261015294369492936024939284019190819084018382808284375050604080518082018252959897968181019695509350600292508491508390808284375050604080518082018252949796958181019594509250600291508390839080828437505060408051808201825294979695818101959450925060029150839083908082843750939650610ac695505050505050565b3480156102d357600080fd5b506101e9610b7c565b3480156102e857600080fd5b506040805160206004803580820135601f81018490048402850184019095528484526101e9943694929360249392840191908190840183828082843750949750610b8b9650505050505050565b34801561034157600080fd5b506101ad610b92565b34801561035657600080fd5b506101ad610b98565b34801561036b57600080fd5b50610152610b9e565b34801561038057600080fd5b506101e9610bd0565b34801561039557600080fd5b5061039e610bdf565b604080519115158252519081900360200190f35b3480156103be57600080fd5b506040805160206004803580820135601f810184900484028501840190955284845261015294369492936024939284019190819084018382808284375050604080516020601f89358b018035918201839004830284018301909452808352979a99988101979196509182019450925082915084018382808284375050604080516020601f89358b018035918201839004830284018301909452808352979a99988101979196509182019450925082915084018382808284375050604080518082018252959897968181019695509350600292508491508390808284375050604080518082018252949796958181019594509250600291508390839080828437505060408051808201825294979695818101959450925060029150839083908082843750939650610be595505050505050565b3480156104fc57600080fd5b506101ad610ddc565b34801561051157600080fd5b506101ad610de2565b34801561052657600080fd5b506040805160206004803580820135601f810184900484028501840190955284845261039e94369492936024939284019190819084018382808284375094975050843595505050602083013592604081013592506060810135915060808101359060a00135610de8565b34801561059c57600080fd5b50610152600435610fa5565b6040805160206004803580820135601f8101849004840285018401909552848452610152943694929360249392840191908190840183828082843750949750509335945061122b9350505050565b34801561060257600080fd5b5061060b611599565b6040805160208082528351818301528351919283929083019185019080838360005b8381101561064557818101518382015260200161062d565b50505050905090810190601f1680156106725780820380516001836020036101000a031916815260200191505b509250505060405180910390f35b34801561068c57600080fd5b506040805160206004803580820135601f81018490048402850184019095528484526101ad9436949293602493928401919081908401838280828437509497506116279650505050505050565b3480156106e557600080fd5b506101ad61162e565b3480156106fa57600080fd5b506040805160206004803580820135601f81018490048402850184019095528484526101ad9436949293602493928401919081908401838280828437509497506116349650505050505050565b34801561075357600080fd5b506040805160206004803580820135601f81018490048402850184019095528484526101529436949293602493928401919081908401838280828437505060408051808201825295989796818101969550935060029250849150839080828437505060408051808201825294979695818101959450925060029150839083908082843750506040805180820182529497969581810195945092506002915083908390808284375093965061163b95505050505050565b34801561081557600080fd5b506108216004356116b1565b604051808b81526020018a815260200189815260200188815260200187600160a060020a0316600160a060020a0316815260200186600160a060020a0316600160a060020a0316815260200185815260200184815260200183815260200180602001828103825283818151815260200191508051906020019080838360005b838110156108b85781810151838201526020016108a0565b50505050905090810190601f1680156108e55780820380516001836020036101000a031916815260200191505b509b50505050505050505050505060405180910390f35b34801561090857600080fd5b506101ad6117ec565b34801561091d57600080fd5b506040805160206004803580820135601f810184900484028501840190955284845261015294369492936024939284019190819084018382808284375050604080516020601f89358b018035918201839004830284018301909452808352979a99988101979196509182019450925082915084018382808284375050604080516020601f89358b018035918201839004830284018301909452808352979a999881019791965091820194509250829150840183828082843750506040805180820182529598979681810196955093506002925084915083908082843750506040805180820182529497969581810195945092506002915083908390808284375050604080518082018252949796958181019594509250600291508390839080828437509396506117f295505050505050565b348015610a5b57600080fd5b506040805160206004803580820135601f810184900484028501840190955284845261015294369492936024939284019190819084018382808284375094975050933594506119409350505050565b60c0015190565b600b5481565b600154600160a060020a031681565b600080610ae58686835b602002015186518660005b6020020151611c90565b9150610b04868660015b60200201518660016020020151866001610adb565b9050610b108282611df6565b1515610b1b57600080fd5b600854600114610b2a57600080fd5b600b54421015610b3957600080fd5b600754610b4587611634565b11610b4f57600080fd5b6003544201600b558551610b6a906006906020890190611ef0565b50506007805460010190555050505050565b600254600160a060020a031681565b60a0015190565b60075481565b60085481565b600b54421015610bad57600080fd5b60055415610bba57600080fd5b600854600114610bc957600080fd5b6001600555565b600a54600160a060020a031681565b60015b90565b6000808080610c008988835b60200201518851886000610adb565b9350610c1f898860015b60200201518860016020020151886001610adb565b9250610c2a88610aaa565b9150610c3589610aaa565b600455610c428484611df6565b1515610c4d57600080fd5b600082815260208190526040902060019081015414610c6b57600080fd5b6000828152602081905260409020600701544210610c8857600080fd5b876040518082805190602001908083835b60208310610cb85780518252601f199092019160209182019101610c99565b6001836020036101000a03801982511681845116808217855250505050505090500191505060405180910390209050610cf4818b600454611e37565b1515610cff57600080fd5b600082815260208190526040902060020154610d1a89611634565b11610d2457600080fd5b610d2d88610b8b565b6000838152602081905260409020600501805473ffffffffffffffffffffffffffffffffffffffff1916600160a060020a0392909216919091179055610d7288611627565b600083815260208181526040909120429290920160078301558951610d9d92600901918b0190611ef0565b50610da788611634565b600083815260208181526040909120600201919091558951610dcf91600691908c0190611ef0565b5050505050505050505050565b60035481565b60045481565b6000868152602081905260408120600101548190819015610e0857600080fd5b600089815260208190526040902054600114610e2357600080fd5b60008981526020819052604090206008015485014210610e4257600080fd5b6000898152602081905260409020600301548814610e5f57600080fd5b6000898152602081815260409182902060090180548351601f60026000196101006001861615020190931692909204918201849004840281018401909452808452610f009392830182828015610ef65780601f10610ecb57610100808354040283529160200191610ef6565b820191906000526020600020905b815481529060010190602001808311610ed957829003601f168201915b5050505050611ea2565b604080518a8152602081018a90528082018990526060810188905290519081900360800190209092509050610f36818b84611e37565b1515610f4157600080fd5b600254604051600160a060020a039091169088156108fc029089906000818181858888f19350505050158015610f7b573d6000803e3d6000fd5b50505060009687525050506020849052505060409091206003018054600190810190915592915050565b600081815260208190526040812060070154606090421015610fc657600080fd5b60008381526020819052604090205415610fdf57600080fd5b600083815260208190526040902060019081015414610ffd57600080fd5b6000838152602081815260409182902060090180548351601f6002600019610100600186161502019093169290920491820184900484028101840190945280845294509084908301828280156110945780601f1061106957610100808354040283529160200191611094565b820191906000526020600020905b81548152906001019060200180831161107757829003601f168201915b5050506000868152602081815260408083206005015481517f66696e616c697a655374617465286279746573290000000000000000000000008152915191829003601401822063ffffffff7c010000000000000000000000000000000000000000000000000000000091829004908116909102835260048301848152602484018b90528851989950600160a060020a039092169790965092945088938893919260440191868501918190849084905b8381101561115b578181015183820152602001611143565b50505050905090810190601f1680156111885780820380516001836020036101000a031916815260200191505b509350505050600060405180830381865af49250505015156111a957600080fd5b6000838152602081905260408120600180825581019190915542600882015560040154600160a060020a03161561122657600083815260208190526040808220600401549051600160a060020a039091169190670de0b6b3a76400009082818181858883f19350505050158015611224573d6000803e3d6000fd5b505b505050565b6000670de0b6b3a7640000341461124157600080fd5b61124a33611eaa565b151561125557600080fd5b60008281526020819052604090206002015461127084611634565b1161127a57600080fd5b6000828152602081815260409182902060090180548351601f6002600019610100600186161502019093169290920491820184900484028101840190945280845261131b93928301828280156113115780601f106112e657610100808354040283529160200191611311565b820191906000526020600020905b8154815290600101906020018083116112f457829003601f168201915b5050505050611ee9565b60011461132757600080fd5b6000828152602081905260409020541561134057600080fd5b60008281526020819052604090206001908101541461135e57600080fd5b5081516000828152602081815260408083206005015481517f76616c69646174655374617465286279746573290000000000000000000000008152915191829003601401822063ffffffff7c010000000000000000000000000000000000000000000000000000000091829004908116909102835260048301848152602484018790528851600160a060020a039093169591949387938a9360449092019186850191908190849084905b83811015611420578181015183820152602001611408565b50505050905090810190601f16801561144d5780820380516001836020036101000a031916815260200191505b509350505050600060405180830381865af492505050151561146e57600080fd5b6000828152602081905260409020600401805473ffffffffffffffffffffffffffffffffffffffff191633600160a060020a03161790556114ae83611634565b600083815260208181526040909120600281019290925584516114d79260090191860190611ef0565b506000828152602081815260409182902060090180548351601f60026000196101006001861615020190931692909204918201849004840281018401909452808452611579939283018282801561156f5780601f106115445761010080835404028352916020019161156f565b820191906000526020600020905b81548152906001019060200180831161155257829003601f168201915b5050505050611627565b420160008084815260200190815260200160002060070181905550505050565b6006805460408051602060026001851615610100026000190190941693909304601f8101849004840282018401909252818152929183018282801561161f5780601f106115f45761010080835404028352916020019161161f565b820191906000526020600020905b81548152906001019060200180831161160257829003601f168201915b505050505081565b6080015190565b60055481565b6040015190565b600080611649868683610ad0565b915061165786866001610aef565b90506116638282611df6565b151561166e57600080fd5b6005541561167b57600080fd5b6008541561168857600080fd5b855161169b906006906020890190611ef0565b5050600160085550506003544201600b55505050565b6000806000806000806000806000606060008060008d8152602001908152602001600020905080600001548160010154826002015483600301548460040160009054906101000a9004600160a060020a03168560050160009054906101000a9004600160a060020a031686600601548760070154886008015489600901808054600181600116156101000203166002900480601f0160208091040260200160405190810160405280929190818152602001828054600181600116156101000203166002900480156117c35780601f10611798576101008083540402835291602001916117c3565b820191906000526020600020905b8154815290600101906020018083116117a657829003601f168201915b505050505090509a509a509a509a509a509a509a509a509a509a50509193959799509193959799565b60095481565b6000808080611802898883610bf1565b935061181089886001610c0a565b925061181b88610aaa565b915061182689610aaa565b6004556118338484611df6565b151561183e57600080fd5b6000828152602081905260409020541561185757600080fd5b6000828152602081905260409020600101541561187357600080fd5b876040518082805190602001908083835b602083106118a35780518252601f199092019160209182019101611884565b6001836020036101000a038019825116818451168082178552505050505050905001915050604051809103902090506118df818b600454611e37565b15156118ea57600080fd5b6118f388610b8b565b600083815260208190526040902060058101805473ffffffffffffffffffffffffffffffffffffffff1916600160a060020a039390931692909217909155600190810155610d7288611627565b600061194b33611eaa565b151561195657600080fd5b60008281526020819052604090206002015461197184611634565b1161197b57600080fd5b6000828152602081815260409182902060090180548351601f600260001961010060018616150201909316929092049182018490048402810184019094528084526119e793928301828280156113115780601f106112e657610100808354040283529160200191611311565b6001146119f357600080fd5b60008281526020819052604090205415611a0c57600080fd5b600082815260208190526040902060019081015414611a2a57600080fd5b6000828152602081905260409020600701544210611a4757600080fd5b600082815260208190526040902060040154600160a060020a03161515611a6d57600080fd5b5081516000828152602081815260408083206005015481517f76616c69646174655374617465286279746573290000000000000000000000008152915191829003601401822063ffffffff7c010000000000000000000000000000000000000000000000000000000091829004908116909102835260048301848152602484018790528851600160a060020a039093169591949387938a9360449092019186850191908190849084905b83811015611b2f578181015183820152602001611b17565b50505050905090810190601f168015611b5c5780820380516001836020036101000a031916815260200191505b509350505050600060405180830381865af4925050501515611b7d57600080fd5b6000828152602081815260409091208451611ba092600990920191860190611ef0565b50611baa83611634565b6000838152602081815260409182902060028082019490945560048101805473ffffffffffffffffffffffffffffffffffffffff19169055600901805483516101006001831615026000190190911694909404601f8101839004830285018301909352828452611c3d9392909183018282801561156f5780601f106115445761010080835404028352916020019161156f565b60008381526020819052604080822042939093016007909301929092559051600160a060020a0333169190670de0b6b3a76400009082818181858883f19350505050158015611224573d6000803e3d6000fd5b6000606060008060006040805190810160405280601c81526020017f19457468657265756d205369676e6564204d6573736167653a0a3332000000008152509350886040518082805190602001908083835b60208310611d015780518252601f199092019160209182019101611ce2565b51815160209384036101000a6000190180199092169116179052604051919093018190038120895190985089955088945090928392508501908083835b60208310611d5d5780518252601f199092019160209182019101611d3e565b51815160209384036101000a6000190180199092169116179052920193845250604080519384900382018420600080865285840180845282905260ff8f1686840152606086018e9052608086018d905291519097506001955060a080860195939450601f198201938290030191865af1158015611dde573d6000803e3d6000fd5b5050604051601f1901519a9950505050505050505050565b600154600090600160a060020a038481169116148015611e235750600254600160a060020a038381169116145b1515611e2e57600080fd5b50600192915050565b6000838160405b85518111611e955785810151915081831015611e725760408051938452602084018390528051938490030190922091611e8d565b60408051838152602081019490945280519384900301909220915b602001611e3e565b5050919091149392505050565b610120015190565b600154600090600160a060020a0383811691161480611ed65750600254600160a060020a038381169116145b1515611ee157600080fd5b506001919050565b6060015190565b828054600181600116156101000203166002900490600052602060002090601f016020900481019282601f10611f3157805160ff1916838001178555611f5e565b82800160010185558215611f5e579182015b82811115611f5e578251825591602001919060010190611f43565b50611f6a929150611f6e565b5090565b610be291905b80821115611f6a5760008155600101611f745600a165627a7a723058201983de03fd86bc2045a68b852ddd74446db7fe41cfcb16ba6b61aa8898fec6fe0029",
  "source": "\npragma solidity ^0.4.23;\n\nimport \"./CTFRegistry.sol\";\n\n/// @title SpankChain Meta-channel - An interpreter designed to handle multiple state-channels\n/// @author Nathan Ginnever - <ginneversource@gmail.com>\n\ncontract MetaChannel {\n\n    // sub-channel state\n    struct SubChannel {\n        uint isSubClose;\n        uint isSubInSettlementState;\n        uint subSequence;\n        uint lockedNonce;\n        address challenger;\n        address CTFaddress;\n        uint subSettlementPeriodLength;\n        uint subSettlementPeriodEnd;\n        uint settledAt;\n        bytes subState;\n    }\n\n    mapping(uint => SubChannel) subChannels;\n\n    // meta-channel state\n    address public partyA; // Address of first channel participant\n    address public partyB; // Address of second channel participant\n    uint public settlementPeriodLength = 0; // How long challengers have to reply to settle engagement\n    bytes32 public stateRoot; // The merkle root of all sub-channel state\n    uint public isClosed;\n    bytes public state;\n    uint public sequence = 0;\n    // settlement state\n    uint public isInSettlementState = 0; // meta channel is in settling 1: Not settling 0\n    uint public isInSubSettlementState = 0; // sub channel is in settling 1: Not settling 0\n    CTFRegistry public registry; // Address of the CTF registry\n    uint public settlementPeriodEnd; // The time when challenges are no longer accepted after\n\n    constructor(address _registry, address _partyA, address _partyB) public {\n        require(_partyA != 0x0 && _partyB != 0x0 && _registry != 0x0);\n        registry = CTFRegistry(_registry);\n        partyA = _partyA;\n        partyB = _partyB;\n    }\n\n    // Allows for single signature of state, it can punish invalid transitions that where signed\n    // or it may reward a valid state advance if the counterparty does not respond.\n    // Slash the initiator if they do respond\n    //\n    // Must start settling the force push state with the double signed open state on the force push subchannel\n    function forcePushSubchannel(bytes _forceState, uint _channelID) public payable{\n        // require force pushes to have a bond\n        require(msg.value == 1 ether);\n        // Make sure one of the parties has signed this subchannel update\n        require(_hasOneSig(msg.sender));\n\n        require(_getSequence(_forceState) > subChannels[_channelID].subSequence);\n\n        // this subchannel must have an agreement to allow force pushing state\n        require(_allowForce(subChannels[_channelID].subState) == 1);\n\n        // sub-channel must be open\n        require(subChannels[_channelID].isSubClose == 0);\n        // sub-channel must already be in a settle state, this should\n        // only be called once it is confirmed that a subchannel with both\n        // parties sigs with a forcepsuh flag has entered\n        require(subChannels[_channelID].isSubInSettlementState == 1);\n\n        uint _length = _forceState.length;\n        require(address(subChannels[_channelID].CTFaddress).delegatecall(bytes4(keccak256(\"validateState(bytes)\")), bytes32(32), bytes32(_length), _forceState));\n\n        subChannels[_channelID].challenger = msg.sender;\n        subChannels[_channelID].subSequence = _getSequence(_forceState);\n        subChannels[_channelID].subState = _forceState;\n        subChannels[_channelID].subSettlementPeriodEnd = now + _getChallengePeriod(subChannels[_channelID].subState);\n    }\n\n    function challengeForcePush(bytes _forceState, uint _channelID) public {\n        // Make sure one of the parties has signed this subchannel update\n        require(_hasOneSig(msg.sender));\n\n        require(_getSequence(_forceState) > subChannels[_channelID].subSequence);\n\n        // this subchannel must have an agreement to allow force pushing state\n        require(_allowForce(subChannels[_channelID].subState) == 1);\n        // sub-channel must be open\n        require(subChannels[_channelID].isSubClose == 0);\n        // sub-channel must already be in a settle state, this should\n        // only be called once it is confirmed that a subchannel with both\n        // parties sigs with a forcepsuh flag has entered\n        require(subChannels[_channelID].isSubInSettlementState == 1);\n        require(subChannels[_channelID].subSettlementPeriodEnd > now);\n        require(subChannels[_channelID].challenger != 0x0);\n\n        uint _length = _forceState.length;\n        require(address(subChannels[_channelID].CTFaddress).delegatecall(bytes4(keccak256(\"validateState(bytes)\")), bytes32(32), bytes32(_length), _forceState));\n\n        subChannels[_channelID].subState = _forceState;\n        subChannels[_channelID].subSequence = _getSequence(_forceState);\n        // reset the challenger\n        subChannels[_channelID].challenger = 0x0;\n        subChannels[_channelID].subSettlementPeriodEnd = now + _getChallengePeriod(subChannels[_channelID].subState);\n        // Punish the challenger for force pushing\n        msg.sender.transfer(1 ether);\n    }\n\n\n    // entry point for settlement of byzantine sub-channel\n    function startSettleStateSubchannel(bytes _proof, bytes _state, bytes _subchannel, uint8[2] _v, bytes32[2] _r, bytes32[2] _s) public {\n        // check that this state is signed\n        address _partyA = _getSig(_state, _v[0], _r[0], _s[0]);\n        address _partyB = _getSig(_state, _v[1], _r[1], _s[1]);\n\n        uint _channelID = _getChannelID(_subchannel);\n\n        // get roothash\n        stateRoot = _getRoot(_state);\n\n        require(_hasAllSigs(_partyA, _partyB));\n\n        // sub-channel must be open\n        require(subChannels[_channelID].isSubClose == 0);\n        // sub-channel must not already be in a settle state, this should\n        // only be called once to initiate settlement period\n        require(subChannels[_channelID].isSubInSettlementState == 0);\n\n        bytes32 _stateHash = keccak256(_subchannel);\n        // do proof of inclusing of sub-channel state in root state\n        require(_isContained(_stateHash, _proof, stateRoot));\n\n        // consider running some logic on the state from the interpreter to validate\n        // the new state obeys transition rules\n\n        subChannels[_channelID].CTFaddress = _getInterpreterAddress(_subchannel);\n\n        subChannels[_channelID].isSubInSettlementState = 1;\n        subChannels[_channelID].subSettlementPeriodEnd = now + _getChallengePeriod(_subchannel);\n        subChannels[_channelID].subState = _subchannel;\n        subChannels[_channelID].subSequence = _getSequence(_subchannel);\n        state = _state;\n    }\n\n\n    function challengeSettleStateSubchannel(bytes _proof, bytes _state, bytes _subchannel, uint8[2] _v, bytes32[2] _r, bytes32[2] _s) public {\n        // check sigs\n        address _partyA = _getSig(_state, _v[0], _r[0], _s[0]);\n        address _partyB = _getSig(_state, _v[1], _r[1], _s[1]);\n\n        uint _channelID = _getChannelID(_subchannel);\n\n        // get roothash\n        stateRoot = _getRoot(_state);\n\n        require(_hasAllSigs(_partyA, _partyB));\n\n        require(subChannels[_channelID].isSubInSettlementState == 1);\n        require(subChannels[_channelID].subSettlementPeriodEnd > now);\n\n        bytes32 _stateHash = keccak256(_subchannel);\n        require(_isContained(_stateHash, _proof, stateRoot));\n\n        require(_getSequence(_subchannel) > subChannels[_channelID].subSequence);\n\n        subChannels[_channelID].CTFaddress = _getInterpreterAddress(_subchannel);\n        // extend the challenge time for the sub-channel\n        subChannels[_channelID].subSettlementPeriodEnd = now + _getChallengePeriod(_subchannel);\n        subChannels[_channelID].subState = _subchannel;\n        subChannels[_channelID].subSequence = _getSequence(_subchannel);\n        state = _state;\n    }\n\n    // in the case of HTLC sub-channels, this must be called after the subchannel interpreter\n    // has had enough time to play out the locked txs and update is balances\n    function closeWithTimeoutSubchannel(uint _channelID) public {\n        require(subChannels[_channelID].subSettlementPeriodEnd <= now);\n        require(subChannels[_channelID].isSubClose == 0);\n        require(subChannels[_channelID].isSubInSettlementState == 1);\n\n        uint _length = subChannels[_channelID].subState.length;\n        bytes memory _s = subChannels[_channelID].subState;\n        require(address(subChannels[_channelID].CTFaddress).delegatecall(bytes4(keccak256(\"finalizeState(bytes)\")), bytes32(32), bytes32(_length), _s));\n\n        subChannels[_channelID].isSubClose = 1;\n        subChannels[_channelID].isSubInSettlementState = 0;\n        subChannels[_channelID].settledAt = now;\n\n        // return bond if challenge received no response\n        if(subChannels[_channelID].challenger != 0x0) { subChannels[_channelID].challenger.transfer(1 ether); }\n    }\n\n    // send ether balance\n    // assumptions:\n    //   - Channels are single directional\n    //   - party A is always paying party B\n    function updateHTLCBalances(bytes _proof, uint _channelID, uint256 _lockedNonce, uint256 _amount, bytes32 _hash, uint256 _timeout, bytes32 _secret) public returns (bool) {\n        require(subChannels[_channelID].isSubInSettlementState == 0);\n        require(subChannels[_channelID].isSubClose == 1);\n        // require that the transaction timeout has not expired\n        require(now < subChannels[_channelID].settledAt + _timeout);\n        // be sure the tx nonce lines up with the interpreters sequence\n        // initially this will be 0\n        require(_lockedNonce == subChannels[_channelID].lockedNonce);\n\n        bytes32 _lockRoot = _getSubRoot(subChannels[_channelID].subState);\n\n        bytes32 _txHash = keccak256(_lockedNonce, _amount, _hash, _timeout);\n        require(_isContained(_txHash, _proof, _lockRoot));\n\n        // no need to refund?, just don't update the state balance\n\n        // redeem case\n        //require(keccak256(_secret) == _hash);\n\n        partyB.transfer(_amount);\n        subChannels[_channelID].lockedNonce++;\n\n        return true;\n    }\n\n    // TODO allow Alice to come online and reclaim locked funds\n    function finalizeHTLCupdates() public pure returns (bool) {\n        return true;\n    }\n\n    // /// --- Close Meta Channel Functions\n\n    function startSettle(bytes _state, uint8[2] _v, bytes32[2] _r, bytes32[2] _s) public {\n        address _partyA = _getSig(_state, _v[0], _r[0], _s[0]);\n        address _partyB = _getSig(_state, _v[1], _r[1], _s[1]);\n\n        require(_hasAllSigs(_partyA, _partyB));\n\n        require(isClosed == 0);\n        require(isInSettlementState == 0);\n\n        state = _state;\n\n        isInSettlementState = 1;\n        settlementPeriodEnd = now + settlementPeriodLength;\n    }\n\n    function challengeSettle(bytes _state, uint8[2] _v, bytes32[2] _r, bytes32[2] _s) public {\n        address _partyA = _getSig(_state, _v[0], _r[0], _s[0]);\n        address _partyB = _getSig(_state, _v[1], _r[1], _s[1]);\n\n        require(_hasAllSigs(_partyA, _partyB));\n\n        require(isInSettlementState == 1);\n        require(settlementPeriodEnd <= now);\n\n        require(_getSequence(_state) > sequence);\n\n        settlementPeriodEnd = now + settlementPeriodLength;\n        state = _state;\n        sequence++;\n    }\n\n    function closeWithTimeout() public {\n        require(settlementPeriodEnd <= now);\n        require(isClosed == 0);\n        require(isInSettlementState == 1);\n\n        isClosed = 1;\n    }\n\n    // Internal Functions\n    function _getInterpreterAddress(bytes _s) public pure  returns (address _ctf) {\n        assembly {\n            _ctf := mload(add(_s, 160))\n        }\n    }\n\n    function _getChannelID(bytes _s) public pure returns (uint _id) {\n        assembly {\n            _id := mload(add(_s, 192))\n        }\n    }\n\n    function _getSequence(bytes _data) public pure returns (uint _seq) {\n        assembly {\n            _seq := mload(add(_data, 64))\n        }\n    }\n\n    function _getChallengePeriod(bytes _data) public pure returns (uint _length) {\n        assembly {\n            _length := mload(add(_data, 128))\n        }\n    }\n\n\n    function _isContained(bytes32 _hash, bytes _proof, bytes32 _root) internal pure returns (bool) {\n        bytes32 cursor = _hash;\n        bytes32 proofElem;\n\n        for (uint256 i=64; i<=_proof.length; i+=32) {\n            assembly { proofElem := mload(add(_proof, i)) }\n\n            if (cursor < proofElem) {\n                cursor = keccak256(cursor, proofElem);\n            } else {\n                cursor = keccak256(proofElem, cursor);\n            }\n        }\n\n        return cursor == _root;\n    }\n\n    function _allowForce(bytes _state) internal pure returns (uint _isForce) {\n        assembly { _isForce := mload(add(_state, 96))}\n    }\n\n    function _hasAllSigs(address _a, address _b) internal view returns (bool) {\n        require(_a == partyA && _b == partyB);\n        return true;\n    }\n\n    function _hasOneSig(address _c) internal view returns (bool) {\n        require(_c == partyA || _c == partyB);\n        return true;\n    }\n\n    function _getRoot(bytes _state) internal pure returns (bytes32 _root){\n        assembly {\n            _root := mload(add(_state, 192))\n        }\n    }\n\n    function _getSubRoot(bytes _state) internal pure returns (bytes32 _root){\n        assembly {\n            _root := mload(add(_state, 288))\n        }\n    }\n\n    function _getSig(bytes _d, uint8 _v, bytes32 _r, bytes32 _s) internal pure returns(address) {\n        bytes memory prefix = \"\\x19Ethereum Signed Message:\\n32\";\n        bytes32 h = keccak256(_d);\n\n        bytes32 prefixedHash = keccak256(prefix, h);\n\n        address a = ecrecover(prefixedHash, _v, _r, _s);\n\n        //address a = ECRecovery.recover(prefixedHash, _s);\n\n        return(a);\n    }\n\n    function getSubChannel(uint _channelID)\n        external\n        view\n        returns\n    (\n        uint isSubClose,\n        uint isSubInSettlementState,\n        uint subSequence,\n        uint lockedNonce,\n        address challenger,\n        address subCTFaddress,\n        uint subSettlementPeriodLength,\n        uint subSettlementPeriodEnd,\n        uint settledAt,\n        bytes subState\n    ) {\n        SubChannel storage g = subChannels[_channelID];\n        return (\n            g.isSubClose,\n            g.isSubInSettlementState,\n            g.subSequence,\n            g.lockedNonce,\n            g.challenger,\n            g.CTFaddress,\n            g.subSettlementPeriodLength,\n            g.subSettlementPeriodEnd,\n            g.settledAt,\n            g.subState\n        );\n    }\n\n    function() payable public {}\n}\n",
  "sourcePath": "/home/newton/github/finalitylabs/layer2lib/js-layer2lib/contracts/repo/contracts/MetaChannel.sol",
  "compiler": {
    "name": "solc",
    "version": "0.4.23+commit.124ca40d.Emscripten.clang"
  },
  "schemaVersion": "2.0.0",
  "updatedAt": "2018-06-25T21:32:32.533Z"
}