{
  "contractName": "MultiSig",
  "abi": [
    {
      "constant": true,
      "inputs": [],
      "name": "partyA",
      "outputs": [
        {
          "name": "",
          "type": "address"
        }
      ],
      "payable": false,
      "stateMutability": "view",
      "type": "function"
    },
    {
      "constant": true,
      "inputs": [],
      "name": "partyB",
      "outputs": [
        {
          "name": "",
          "type": "address"
        }
      ],
      "payable": false,
      "stateMutability": "view",
      "type": "function"
    },
    {
      "constant": true,
      "inputs": [],
      "name": "isOpen",
      "outputs": [
        {
          "name": "",
          "type": "bool"
        }
      ],
      "payable": false,
      "stateMutability": "view",
      "type": "function"
    },
    {
      "constant": true,
      "inputs": [],
      "name": "stateHash",
      "outputs": [
        {
          "name": "",
          "type": "bytes32"
        }
      ],
      "payable": false,
      "stateMutability": "view",
      "type": "function"
    },
    {
      "constant": true,
      "inputs": [],
      "name": "registry",
      "outputs": [
        {
          "name": "",
          "type": "address"
        }
      ],
      "payable": false,
      "stateMutability": "view",
      "type": "function"
    },
    {
      "constant": true,
      "inputs": [],
      "name": "metachannel",
      "outputs": [
        {
          "name": "",
          "type": "bytes32"
        }
      ],
      "payable": false,
      "stateMutability": "view",
      "type": "function"
    },
    {
      "constant": true,
      "inputs": [],
      "name": "isPending",
      "outputs": [
        {
          "name": "",
          "type": "bool"
        }
      ],
      "payable": false,
      "stateMutability": "view",
      "type": "function"
    },
    {
      "constant": true,
      "inputs": [],
      "name": "NAME",
      "outputs": [
        {
          "name": "",
          "type": "string"
        }
      ],
      "payable": false,
      "stateMutability": "view",
      "type": "function"
    },
    {
      "constant": true,
      "inputs": [
        {
          "name": "",
          "type": "uint256"
        }
      ],
      "name": "extensions",
      "outputs": [
        {
          "name": "",
          "type": "address"
        }
      ],
      "payable": false,
      "stateMutability": "view",
      "type": "function"
    },
    {
      "constant": true,
      "inputs": [],
      "name": "VERSION",
      "outputs": [
        {
          "name": "",
          "type": "string"
        }
      ],
      "payable": false,
      "stateMutability": "view",
      "type": "function"
    },
    {
      "inputs": [
        {
          "name": "_metachannel",
          "type": "bytes32"
        },
        {
          "name": "_registry",
          "type": "address"
        }
      ],
      "payable": false,
      "stateMutability": "nonpayable",
      "type": "constructor"
    },
    {
      "constant": false,
      "inputs": [
        {
          "name": "_state",
          "type": "bytes"
        },
        {
          "name": "_ext",
          "type": "address"
        },
        {
          "name": "_v",
          "type": "uint8"
        },
        {
          "name": "_r",
          "type": "bytes32"
        },
        {
          "name": "_s",
          "type": "bytes32"
        }
      ],
      "name": "openAgreement",
      "outputs": [],
      "payable": true,
      "stateMutability": "payable",
      "type": "function"
    },
    {
      "constant": false,
      "inputs": [
        {
          "name": "_state",
          "type": "bytes"
        },
        {
          "name": "_ext",
          "type": "address"
        },
        {
          "name": "_v",
          "type": "uint8"
        },
        {
          "name": "_r",
          "type": "bytes32"
        },
        {
          "name": "_s",
          "type": "bytes32"
        }
      ],
      "name": "joinAgreement",
      "outputs": [],
      "payable": true,
      "stateMutability": "payable",
      "type": "function"
    },
    {
      "constant": false,
      "inputs": [
        {
          "name": "_state",
          "type": "bytes"
        },
        {
          "name": "_ext",
          "type": "address"
        },
        {
          "name": "sigV",
          "type": "uint8[2]"
        },
        {
          "name": "sigR",
          "type": "bytes32[2]"
        },
        {
          "name": "sigS",
          "type": "bytes32[2]"
        }
      ],
      "name": "depositState",
      "outputs": [],
      "payable": true,
      "stateMutability": "payable",
      "type": "function"
    },
    {
      "constant": false,
      "inputs": [
        {
          "name": "_state",
          "type": "bytes"
        },
        {
          "name": "sigV",
          "type": "uint8[2]"
        },
        {
          "name": "sigR",
          "type": "bytes32[2]"
        },
        {
          "name": "sigS",
          "type": "bytes32[2]"
        }
      ],
      "name": "closeAgreement",
      "outputs": [],
      "payable": false,
      "stateMutability": "nonpayable",
      "type": "function"
    },
    {
      "constant": false,
      "inputs": [
        {
          "name": "_subchannelID",
          "type": "uint256"
        }
      ],
      "name": "closeSubchannel",
      "outputs": [],
      "payable": false,
      "stateMutability": "nonpayable",
      "type": "function"
    },
    {
      "constant": false,
      "inputs": [],
      "name": "closeWithMetachannel",
      "outputs": [],
      "payable": false,
      "stateMutability": "nonpayable",
      "type": "function"
    },
    {
      "constant": true,
      "inputs": [
        {
          "name": "_s",
          "type": "bytes"
        }
      ],
      "name": "_getInterpreter",
      "outputs": [
        {
          "name": "_int",
          "type": "address"
        }
      ],
      "payable": false,
      "stateMutability": "pure",
      "type": "function"
    }
  ],
  "bytecode": "0x60806040526006805461ffff1916905534801561001b57600080fd5b5060405160408061198f8339810160405280516020909101518115156100c857604080517f08c379a000000000000000000000000000000000000000000000000000000000815260206004820152603760248201527f4e6f206d6574616368616e6e656c2043544620616464726573732070726f766960448201527f64656420746f204d73696720636f6e7374727563746f72000000000000000000606482015290519081900360840190fd5b600160a060020a038116151561016557604080517f08c379a000000000000000000000000000000000000000000000000000000000815260206004820152603460248201527f4e6f2043544620526567697374727920616464726573732070726f766964656460448201527f20746f204d73696720636f6e7374727563746f72000000000000000000000000606482015290519081900360840190fd5b60039190915560008054600160a060020a03909216600160a060020a03199092169190911790556117f48061019b6000396000f3006080604052600436106100f05763ffffffff7c010000000000000000000000000000000000000000000000000000000060003504166310e1d8ca81146100f55780631c2e3e2714610126578063290401131461019157806347535d7b146101a65780634ca7c377146101cf578063674ea3cb14610296578063701da98e146103585780637b1039991461037f5780639354648b146103945780639b827e6a146103ed5780639c30ad7e14610402578063a3f4df7e14610417578063b3850f6b146104a1578063bfd788061461050a578063d05b584a14610522578063db85d59c14610537578063ffa1ad741461054f575b600080fd5b34801561010157600080fd5b5061010a610564565b60408051600160a060020a039092168252519081900360200190f35b6040805160206004803580820135601f810184900484028501840190955284845261018f94369492936024939284019190819084018382808284375094975050508335600160a060020a03169450505050602081013560ff169060408101359060600135610573565b005b34801561019d57600080fd5b5061010a610765565b3480156101b257600080fd5b506101bb610774565b604080519115158252519081900360200190f35b6040805160206004803580820135601f810184900484028501840190955284845261018f943694929360249392840191908190840183828082843750506040805180820182529598600160a060020a03883516989097909660608201965094506020019250600291508390839080828437505060408051808201825294979695818101959450925060029150839083908082843750506040805180820182529497969581810195945092506002915083908390808284375093965061077d95505050505050565b3480156102a257600080fd5b506040805160206004803580820135601f810184900484028501840190955284845261018f943694929360249392840191908190840183828082843750506040805180820182529598979681810196955093506002925084915083908082843750506040805180820182529497969581810195945092506002915083908390808284375050604080518082018252949796958181019594509250600291508390839080828437509396506109d895505050505050565b34801561036457600080fd5b5061036d610ada565b60408051918252519081900360200190f35b34801561038b57600080fd5b5061010a610ae0565b3480156103a057600080fd5b506040805160206004803580820135601f810184900484028501840190955284845261010a943694929360249392840191908190840183828082843750949750610aef9650505050505050565b3480156103f957600080fd5b5061036d610af6565b34801561040e57600080fd5b506101bb610afc565b34801561042357600080fd5b5061042c610b0a565b6040805160208082528351818301528351919283929083019185019080838360005b8381101561046657818101518382015260200161044e565b50505050905090810190601f1680156104935780820380516001836020036101000a031916815260200191505b509250505060405180910390f35b6040805160206004803580820135601f810184900484028501840190955284845261018f94369492936024939284019190819084018382808284375094975050508335600160a060020a03169450505050602081013560ff169060408101359060600135610b41565b34801561051657600080fd5b5061018f600435610e87565b34801561052e57600080fd5b5061018f611080565b34801561054357600080fd5b5061010a6004356112a6565b34801561055b57600080fd5b5061042c6112ce565b600154600160a060020a031681565b600654600090819060ff161561058857600080fd5b6004546040518851899190819060208401908083835b602083106105bd5780518252601f19909201916020918201910161059e565b6001836020036101000a0380198251168184511680821785525050505050509050019150506040518091039020600019161415156105fa57600080fd5b6006805460ff1916600117905561061387868686611305565b915033600160a060020a031682600160a060020a031614151561063557600080fd5b508551604080517f6a6f696e286279746573290000000000000000000000000000000000000000008152905190819003600b01812063ffffffff7c0100000000000000000000000000000000000000000000000000000000918290049081169091028252602060048301818152602484018590528a51600160a060020a038b169486928d929091604401908584019080838360005b838110156106e25781810151838201526020016106ca565b50505050905090810190601f16801561070f5780820380516001836020036101000a031916815260200191505b509350505050600060405180830381865af492505050151561073057600080fd5b506002805473ffffffffffffffffffffffffffffffffffffffff1916600160a060020a03929092169190911790555050505050565b600254600160a060020a031681565b60065460ff1681565b600080600061078b8761146b565b15156107ea57600580546001810182556000919091527f036b6384b5eca791c62761152d0c79bb0604c104a5fb6f4eb0703f3154bb3db001805473ffffffffffffffffffffffffffffffffffffffff1916600160a060020a0389161790555b60065460ff16151560011461088657604080517f08c379a000000000000000000000000000000000000000000000000000000000815260206004820152602960248201527f547269656420616464696e6720737461746520746f206120636c6f7365206d7360448201527f69672077616c6c65740000000000000000000000000000000000000000000000606482015290519081900360840190fd5b8551855161089e918a918760005b6020020151611305565b92506108bc8887600160200201518760016020020151876001610894565b91506108c883836114c2565b15156108d357600080fd5b508651604080517f75706461746528627974657329000000000000000000000000000000000000008152905190819003600d01812063ffffffff7c0100000000000000000000000000000000000000000000000000000000918290049081169091028252602060048301818152602484018590528b51600160a060020a038c169486928e929091604401908584019080838360005b83811015610980578181015183820152602001610968565b50505050905090810190601f1680156109ad5780820380516001836020036101000a031916815260200191505b509350505050600060405180830381865af49250505015156109ce57600080fd5b5050505050505050565b8251825160009182916109ee9188918685610894565b9150610a0c8686600160200201518660016020020151866001610894565b9050610a178661158b565b1515610aaa57604080517f08c379a000000000000000000000000000000000000000000000000000000000815260206004820152602a60248201527f537461746520646964206e6f7420686176652061207369676e656420636c6f7360448201527f652073656e74696e656c00000000000000000000000000000000000000000000606482015290519081900360840190fd5b610ab482826114c2565b1515610abf57600080fd5b610ac8866115a0565b50506006805460ff1916905550505050565b60045481565b600054600160a060020a031681565b60a0015190565b60035481565b600654610100900460ff1681565b60408051808201909152601681527f47656e6572616c205374617465204d756c746953696700000000000000000000602082015281565b600654600090819060ff1615610bde57604080517f08c379a000000000000000000000000000000000000000000000000000000000815260206004820152602960248201527f6f70656e41677265656d656e7420616c72656164792063616c6c65642c20697360448201527f4f70656e20747275650000000000000000000000000000000000000000000000606482015290519081900360840190fd5b600654610100900460ff1615610c7b57604080517f08c379a000000000000000000000000000000000000000000000000000000000815260206004820152602c60248201527f6f70656e41677265656d656e7420616c72656164792063616c6c65642c20697360448201527f50656e64696e6720747275650000000000000000000000000000000000000000606482015290519081900360840190fd5b6006805461ff001916610100179055610c9687868686611305565b915033600160a060020a031682600160a060020a0316141515610cb857600080fd5b508551604080517f6f70656e286279746573290000000000000000000000000000000000000000008152905190819003600b01812063ffffffff7c0100000000000000000000000000000000000000000000000000000000918290049081169091028252602060048301818152602484018590528a51600160a060020a038b169486928d929091604401908584019080838360005b83811015610d65578181015183820152602001610d4d565b50505050905090810190601f168015610d925780820380516001836020036101000a031916815260200191505b509350505050600060405180830381865af4925050501515610db357600080fd5b60018054600160a060020a0380851673ffffffffffffffffffffffffffffffffffffffff199283161783556005805493840181556000527f036b6384b5eca791c62761152d0c79bb0604c104a5fb6f4eb0703f3154bb3db09092018054928916929091169190911790556040518751889190819060208401908083835b60208310610e4f5780518252601f199092019160209182019101610e30565b5181516020939093036101000a6000190180199091169216919091179052604051920182900390912060045550505050505050505050565b60008054600354604080517f6a14920a00000000000000000000000000000000000000000000000000000000815260048101929092525183926060928492600160a060020a0390921691636a14920a9160248082019260209290919082900301818787803b158015610ef857600080fd5b505af1158015610f0c573d6000803e3d6000fd5b505050506040513d6020811015610f2257600080fd5b5051604080517fe56dc814000000000000000000000000000000000000000000000000000000008152600481018890529051919550600160a060020a0386169163e56dc8149160248082019260009290919082900301818387803b158015610f8957600080fd5b505af1158015610f9d573d6000803e3d6000fd5b505050506040513d6000823e601f3d908101601f19168201604052610140811015610fc757600080fd5b8151602083015160408401516060850151608086015160a087015160c088015160e08901516101008a01516101208b018051999b989a9799969895979496939592949193918301929164010000000081111561102257600080fd5b8201602081018481111561103557600080fd5b815164010000000081118282018710171561104f57600080fd5b509c9f509d5061106d9b508d9a50610aef9950505050505050505050565b905061107982826116ce565b5050505050565b60008054600354604080517f6a14920a0000000000000000000000000000000000000000000000000000000081526004810192909252518392606092600160a060020a0390911691636a14920a9160248082019260209290919082900301818887803b1580156110ef57600080fd5b505af1158015611103573d6000803e3d6000fd5b505050506040513d602081101561111957600080fd5b5051604080517fc2b6b58c0000000000000000000000000000000000000000000000000000000081529051919450600160a060020a0385169163c2b6b58c916004808201926020929091908290030181600087803b15801561117a57600080fd5b505af115801561118e573d6000803e3d6000fd5b505050506040513d60208110156111a457600080fd5b50519150600182146111b557600080fd5b82600160a060020a031663c19d93fb6040518163ffffffff167c0100000000000000000000000000000000000000000000000000000000028152600401600060405180830381600087803b15801561120c57600080fd5b505af1158015611220573d6000803e3d6000fd5b505050506040513d6000823e601f3d908101601f19168201604052602081101561124957600080fd5b81019080805164010000000081111561126157600080fd5b8201602081018481111561127457600080fd5b815164010000000081118282018710171561128e57600080fd5b505092919050505090506112a1816115a0565b505050565b60058054829081106112b457fe5b600091825260209091200154600160a060020a0316905081565b60408051808201909152600581527f302e302e31000000000000000000000000000000000000000000000000000000602082015281565b6000606060008060006040805190810160405280601c81526020017f19457468657265756d205369676e6564204d6573736167653a0a3332000000008152509350886040518082805190602001908083835b602083106113765780518252601f199092019160209182019101611357565b51815160209384036101000a6000190180199092169116179052604051919093018190038120895190985089955088945090928392508501908083835b602083106113d25780518252601f1990920191602091820191016113b3565b51815160209384036101000a6000190180199092169116179052920193845250604080519384900382018420600080865285840180845282905260ff8f1686840152606086018e9052608086018d905291519097506001955060a080860195939450601f198201938290030191865af1158015611453573d6000803e3d6000fd5b5050604051601f1901519a9950505050505050505050565b600080805b6005548110156114bb5783600160a060020a031660058281548110151561149357fe5b600091825260209091200154600160a060020a031614156114b357600191505b600101611470565b5092915050565b600154600090600160a060020a0384811691161480156114ef5750600254600160a060020a038381169116145b151561158257604080517f08c379a000000000000000000000000000000000000000000000000000000000815260206004820152602860248201527f5369676e61747572657320646f206e6f74206d6174636820706172746965732060448201527f696e207374617465000000000000000000000000000000000000000000000000606482015290519081900360840190fd5b50600192915050565b60208101516000906001811461158257600080fd5b805160005b6005548110156112a15760058054829081106115bd57fe5b6000918252602080832090910154604080517f66696e616c697a652862797465732900000000000000000000000000000000008152905190819003600f01812063ffffffff7c010000000000000000000000000000000000000000000000000000000091829004908116909102825260048201848152602483018890528851600160a060020a039094169591949388938a93604490910191848701918190849084905b83811015611678578181015183820152602001611660565b50505050905090810190601f1680156116a55780820380516001836020036101000a031916815260200191505b509350505050600060405180830381865af49250505015156116c657600080fd5b6001016115a5565b8151604080517f66696e616c697a6542797a616e74696e652862797465732900000000000000008152905190819003601801812063ffffffff7c0100000000000000000000000000000000000000000000000000000000918290049081169091028252602060048301818152602484018590528651600160a060020a03871694869289929091604401908584019080838360005b8381101561177a578181015183820152602001611762565b50505050905090810190601f1680156117a75780820380516001836020036101000a031916815260200191505b509350505050600060405180830381865af49250505015156112a157600080fd00a165627a7a72305820da7d92862c55786727cf7fa9de7c3d3ee32baa2fccdd3dc3f28a3e6c223b10a20029",
  "source": "pragma solidity ^0.4.23;\n\nimport \"./CTFRegistry.sol\";\nimport \"./MetaChannel.sol\";\n\n/// @title SpankChain General-State-Channel - A multisignature \"wallet\" for general state\n/// @author Nathan Ginnever - <ginneversource@gmail.com>\n\n// TODO: Timeout on init deposit return\n\ncontract MultiSig {\n\n    string public constant NAME = \"General State MultiSig\";\n    string public constant VERSION = \"0.0.1\";\n\n    CTFRegistry public registry;\n\n    // General State Sectors - Extensions must be able to handle these format\n    // Sectors represent the final state of channels.\n    //\n    // Ether Balances - Sector type [0]\n    //    EthBalanceA\n    //    EthBalanceB\n    //\n    // Token Balances - Sector type [1]\n    //    numTokenTypes\n    //    tokenAddress\n    //    ERC20BalanceA\n    //    ERC20BalanceB\n    //    ...\n    //\n    // \"Non-fungile\" Objects - Sector type [2]\n    //    num721Objects\n    //    721TokenID\n    //    ...\n    //\n\n    // Extension modules act on final state agreements from the sub-channel outcomes\n\n    address public partyA;\n    address public partyB;\n    bytes32 public metachannel; // Counterfactual address of metachannel\n    bytes32 public stateHash;\n\n    // Require curated extensions to be used.\n    address[] public extensions;\n\n    bool public isOpen = false; // true when both parties have joined\n    bool public isPending = false; // true when waiting for counterparty to join agreement\n\n    constructor(bytes32 _metachannel, address _registry) public {\n        require(_metachannel != 0x0, 'No metachannel CTF address provided to Msig constructor');\n        require(_registry != 0x0, 'No CTF Registry address provided to Msig constructor');\n        metachannel = _metachannel;\n        registry = CTFRegistry(_registry);\n    }\n\n    // for now this must be called by the opener of the account until a better call assembly is created that can \n    // handle packing multiple parameters correctly\n    // Invalid extension contracts will not execute checks and may lock funds. TODO, check ext address is correct\n    function openAgreement(bytes _state, address _ext, uint8 _v, bytes32 _r, bytes32 _s) public payable {\n        // only allow pre-deployed extension contracts\n        //require(_assertExtension(_ext), 'extension is not listed');\n         // require the channel is not open yet\n        require(isOpen == false, 'openAgreement already called, isOpen true');\n        require(isPending == false, 'openAgreement already called, isPending true');\n\n        isPending = true;\n        // check the account opening a channel signed the initial state\n        address _initiator = _getSig(_state, _v, _r, _s);\n        require(_initiator == msg.sender);\n\n        uint _length = _state.length;\n\n        // bytes4 _sig = bytes4(keccak256(\"open(uint256)\"));\n\n        // assembly {\n        //     let x := mload(0x40)\n        //     mstore(x, _sig)\n        //     mstore(add(x, 0x04), v)\n\n        //     let success := call(5000, _ext, 0, x, 0x20, x, 0x20)\n        //     c := mload(x)\n        //     mstore(0x40, add(x, 0x44))\n        // }\n\n        // the open inerface can generalize an entry point for differenct kinds of checks\n        // on opening state\n        require(address(_ext).delegatecall(bytes4(keccak256(\"open(bytes)\")), bytes32(32), bytes32(_length), _state));\n        partyA = _initiator;\n        // TODO: fix this\n        extensions.push(_ext);\n        stateHash = keccak256(_state);\n    }\n\n\n    function joinAgreement(bytes _state, address _ext, uint8 _v, bytes32 _r, bytes32 _s) public payable {\n        // only allow pre-deployed extension contracts\n        //require(_assertExtension(_ext));\n        // require the channel is not open yet\n        require(isOpen == false);\n        require(keccak256(_state) == stateHash);\n\n        // no longer allow joining functions to be called\n        isOpen = true;\n\n        // check that the state is signed by the sender and sender is in the state\n        address _joiningParty = _getSig(_state, _v, _r, _s);\n        require(_joiningParty == msg.sender);\n\n\n        uint _length = _state.length;\n\n        require(address(_ext).delegatecall(bytes4(keccak256(\"join(bytes)\")), bytes32(32), bytes32(_length), _state));\n        // Set storage for state\n        partyB = _joiningParty;\n    }\n\n\n    // additive updates of monetary state\n    function depositState(bytes _state, address _ext, uint8[2] sigV, bytes32[2] sigR, bytes32[2] sigS) public payable {\n        if(!_assertExtension(_ext)) { extensions.push(_ext); }\n\n        require(isOpen == true, 'Tried adding state to a close msig wallet');\n        address _partyA = _getSig(_state, sigV[0], sigR[0], sigS[0]);\n        address _partyB = _getSig(_state, sigV[1], sigR[1], sigS[1]);\n\n        // Require both signatures\n        require(_hasAllSigs(_partyA, _partyB));\n\n        uint _length = _state.length;\n\n        require(address(_ext).delegatecall(bytes4(keccak256(\"update(bytes)\")), bytes32(32), bytes32(_length), _state));\n    }\n\n\n    function closeAgreement(bytes _state, uint8[2] sigV, bytes32[2] sigR, bytes32[2] sigS) public {\n        address _partyA = _getSig(_state, sigV[0], sigR[0], sigS[0]);\n        address _partyB = _getSig(_state, sigV[1], sigR[1], sigS[1]);\n\n        require(_isClose(_state), 'State did not have a signed close sentinel');\n        require(_hasAllSigs(_partyA, _partyB));\n\n        _finalizeAll(_state);\n        isOpen = false;\n    }\n\n\n    function closeSubchannel(uint _subchannelID) public {\n        MetaChannel deployedMetaChannel = MetaChannel(registry.resolveAddress(metachannel));\n\n        uint isSettle;\n        bytes memory _state;\n        (,isSettle,,,,,,,,,_state) = deployedMetaChannel.getSubChannel(_subchannelID);\n        //require(isSettle == 1);\n\n        address _ext = _getInterpreter(_state);\n\n        _finalizeSubchannel(_state, _ext);\n    }\n\n    function closeWithMetachannel() public {\n        // TODO send all remaining msig funds to challenger to punish counterparty from dropping off\n        // this prevents the counterparty knowing that it would cost more to go on chain than the\n        // value that has been exchanged in a subchannel. Use the msig balance as a bond of trust\n        MetaChannel deployedMetaChannel = MetaChannel(registry.resolveAddress(metachannel));\n\n        uint isClosed;\n        bytes memory _state;\n        isClosed = deployedMetaChannel.isClosed();\n        require(isClosed == 1);\n        _state = deployedMetaChannel.state();\n\n        _finalizeAll(_state);\n    }\n\n    // Internal\n\n    function _finalizeAll(bytes _s) internal {\n        uint _length = _s.length;\n        for(uint i = 0; i < extensions.length; i++) {\n            require(address(extensions[i]).delegatecall(bytes4(keccak256(\"finalize(bytes)\")), bytes32(32), bytes32(_length), _s));\n        }\n    }\n\n    // send all funds to metachannel if a channel is in dispute\n    function _finalizeSubchannel(bytes _s, address _ext) internal {\n        uint _length = _s.length;\n        require(address(_ext).delegatecall(bytes4(keccak256(\"finalizeByzantine(bytes)\")), bytes32(32), bytes32(_length), _s));\n    }\n\n\n    function _assertExtension(address _e) internal view returns (bool) {\n        bool _contained = false;\n        for(uint i=0; i<extensions.length; i++) {\n            if(extensions[i] == _e) { _contained = true; }\n        }\n        return _contained;\n    }\n\n    function _getInterpreter(bytes _s) public pure returns(address _int) {\n        assembly {\n            _int := mload(add(_s, 160))\n        }\n    }\n\n\n    function _hasAllSigs(address _a, address _b) internal view returns (bool) {\n        require(_a == partyA && _b == partyB, 'Signatures do not match parties in state');\n\n        return true;\n    }\n\n\n    function _isClose(bytes _data) internal pure returns(bool) {\n        uint isClosed;\n\n        assembly {\n            isClosed := mload(add(_data, 32))\n        }\n\n        require(isClosed == 1);\n        return true;\n    }\n\n\n    function _getSig(bytes _d, uint8 _v, bytes32 _r, bytes32 _s) internal pure returns(address) {\n        bytes memory prefix = \"\\x19Ethereum Signed Message:\\n32\";\n        bytes32 h = keccak256(_d);\n\n        bytes32 prefixedHash = keccak256(prefix, h);\n\n        address a = ecrecover(prefixedHash, _v, _r, _s);\n\n        //address a = ECRecovery.recover(prefixedHash, _s);\n\n        return(a);\n    }\n}\n",
  "sourcePath": "/home/newton/github/finalitylabs/layer2lib/js-layer2lib/contracts/repo/contracts/MultiSig.sol",
  "compiler": {
    "name": "solc",
    "version": "0.4.23+commit.124ca40d.Emscripten.clang"
  },
  "schemaVersion": "2.0.0",
  "updatedAt": "2018-06-25T21:32:32.540Z"
}